:2002C200120D2990E680E0FF740A4FF09005DC12175390E680E0FF74F75FF090E682744515
:2002E200F0F090E670E4F090E67AE0FF74014FF01203CD120DD412062C7D9C7E2F7F808D74
:20030200828E838FF01217AB2DFDE43EFE8D828E838FF01217ABC313FC1C74022DFDE43E88
:20032200FEEC60288D828E838FF01217ABF582C007C006C005C004120634D004D005D0067E
:20034200D00774022DFDE43EFE1C80D5758220C007C006C005120634D005D006D0078D824D
:200362008E838FF01217ABC313FC1C74022DFDE43EFEEC60288D828E838FF01217ABF5820B
:20038200C007C006C005C004120634D004D005D006D00774022DFDE43EFE1C80D575820D6E
:2003A20002063412049A0204D9AF82C0071208EFE582D0076004758201228F82120502E5A4
:2003C20082600475820122758200220000000090E602E4F00000000090E603E4F000000069
:2003E2000090E609E4F00000000090E600E0FF74E75F4410F00000000090E60174E3F00097
:2004020000000090E610E4F00000000090E61174A0F00000000090E61474DAF0000000002D
:2004220090E615E4F00000000090E618E4F00000000090E619E4F00000000090E61A740C86
:20044200F00000000090E61BE4F00000000090E6247404F00000000090E625E4F0000000D4
:200462000090E60BE4F00000000090E6047480F00000000090E6047482F00000000090E6F1
:20048200047484F00000000090E6047486F00000000090E604E4F02290E6A2E0FF20E1366C
:2004A20090E7C0740AF090E7C17420F090E7C2E4F090E7C3F090E7C4F090E7C5F090E7C60E
:1704C200F090E7C77402F090E7C8E4F090E7C9F090E68F740AF022B7
:16021200E4F508F509750A60750B09F50CF50DF50EF50F751008F8
:2004D900E5AA20E02390E690E0FE7F0090E691E07C004FF578EC4EF57990F00075F0001230
:2004F9000DA390E6917480F022AF82BF2002800FBF21030205C5BF2203020624020628C2D4
:20051900E890E6B57401F090E68BE4F090E6B5F0D2E890E68BE0FFBF07F8000000007E0084
:200539007F00EE240AFBEF3400FC7D40EE2440F582EF34E7F583E0FA8B828C838DF012164A
:200559003B0EBE00010FC3EE9407EF6480948040D190000D75F0401217ABFE7F0090000CF8
:2005790075F0401217AB7C004207EC42068E048F057E007F0090000B75F0401217ABFA7B44
:2005990000A80A7900E84203E942028B008A01E4FAFBE84207E94206EA4205EB42048F82F9
:2005B9008E838DF0EC120D6B7582012290E6B57401F07E007F00EE2440FCEF34E7FDEE2410
:2005D9000AF9EF3400FA7B4089828A838BF01217ABF98C828D83F00EBE00010FC3EE940791
:2005F900EF6480948040CF90E68AE4F00000000090E68B7407F00000000090E6A0E0FF2097
:13061900E1F890E6B5E4F0758201227582012275820022A9
:20062C00D2B3E5B575B5FF22E5827909C392B3137820D8FE00D9F6D2B37820D8FE22E58287
:20064C00FFC4540FFE53060FBE0A0050047D3080027D37ED2EF582C007120634D00753072D
:20066C000FBF0A0050047E3080027E37EE2FF582020634AE82E583FFC4540FFC53040F7DF0
:20068C0000BC0A0050047D3080027D37ED2CF582C007C006120634D006D0078F0553050F40
:2006AC008D04BC0A0050047C3080027C37EC2DF582C007C006120634D006D0078E04EFC447
:2006CC00CCC4540F6CCC540FCC6CCC53040F7D00BC0A0050047D3080027D37ED2CF582C04C
:2006EC0007C006120634D006D007740F5EFFFEBE0A0050047E3080027E37EE2FF5820206AD
:20070C0034AC82AD83AEF0FFC4540FF853000F79007A007B00B80A0050047B3080027B37BA
:20072C00EB28F582C007C006C005C004120634D004D005D006D0078F0353030F8B02BA0A23
:20074C000050047A3080027A37EA2BF582C007C006C005C004120634D004D005D006D00718
:20076C008E00EFC4C8C4540F68C8540FC868C853000F79007A007B00B80A0050047B3080A1
:20078C00027B37EB28F582C007C006C005C004120634D004D005D006D0078E0353030F8BD6
:2007AC0002BA0A0050047A3080027A37EA2BF582C007C006C005C004120634D004D005D0CF
:2007CC0006D0078D00EEC4C8C4540F68C8540FC868C8F9EFC454F049EFC4540F53000F794D
:2007EC00007A007B00B80A0050047B3080027B37EB28F582C007C006C005C004120634D047
:20080C0004D005D006D0078D0353030F8B02BA0A0050047A3080027A37EA2BF582C007C0BC
:20082C0006C005C004120634D004D005D006D0078C00EDC4C8C4540F68C8540FC868C8F9CB
:20084C00EEC454F0498E02EFC4CAC4540F6ACA540FCA6ACA53000F79007A007B00B80A00F2
:20086C0050047B3080027B37EB28F582C007C006C005C004120634D004D005D006D0077483
:20088C000F5CFFFEBE0A0050047E3080027E37EE2FF582020634AD82AE83AFF08D828E83F4
:2008AC008FF01217ABFC60188C820DBD00010EC007C006C005120634D005D006D00780DC02
:0108CC002209
:2008CD0002062CAF82BF0A028003BF0D0C75820A12063475820D0206348F820206347582AF
:0208ED003022B7
:2002280075220175230075240175250175262A75272C75280A752900752A00752B00752C9F
:2002480000752D00752E00752F0075300075310075320575330075340075352075361C755F
:200268003700753800753904753A00753B00753C2A753D2C753E0A753F0075405475415840
:20028800754214754300754400754500754618754700754800754920754A1C754B00754DD9
:0102A8000055
:2008EF00AF82BF01028015BF81030209E5BF82030209E5BF83030209E5020A2390E6B8E088
:20090F00FFBF210280047582002290E68AE4F090E68B741AF00000000090E6A0E0FF20E101
:20092F00F890E68BE0FFBF1AF890E742E0FF8F2490E743E0FF8F2590E742E0FF1FEF2F256D
:20094F00E0243CF987078F2690E742E0FF1FEF2F25E0243C04F987078F2790E742E0FF1FDA
:20096F00EF2F25E0243C2402F987078F2890E742E0FF1FEF2F25E0243C2403F987078F29E1
:20098F0090E743E0FF1FEF2F25E02444F987078F3490E743E0FF1FEF2F25E0244404F987F4
:2009AF00078F3590E743E0FF1FEF2F25E024442402F987078F3690E743E0FF1FEF2F25E0CD
:2009CF0024442403F987078F3790E68AE4F090E68BF07582012290E6B57401F07E007F00C0
:2009EF00EE2440F582EF34E7F583EE2422F9E7FDF00EBE00010FC3EE941AEF64809480403A
:200A0F00DF90E68AE4F00000000090E68B741AF07582012275820022854C822290E6BAE0DD
:200A2F00F54C75820122AD78AE79AF7A8D828E838FF0E54D12163B75820122AF8290E6BA28
:200A4F00E0F54DEF7067E578706390E6837402F0E0FF74204FF07494F0E0FF74204FF09024
:200A6F00E6047480F00000000090E6047482F00000000090E604E4F00000000090E6917470
:200A8F0080F00000000090E6917480F00000000090E6047480F00000000090E6047484F02C
:200AAF000000000090E604E4F0000000007401B54D1D0000000090E6047480F000000000E7
:170ACF0090E6047406F00000000090E604E4F07582012275820022AB
:040000000201B9320E
:01000B0032C2
:0100130032BA
:01001B0032B2
:03002300020C428A
:01002B0032A2
:03003300020B536A
:01003B003292
:01004300328A
:01004B003282
:01005300327A
:01005B003272
:01006300326A
:03006B00020B562F
:0300730002163A38
:03007B0002120B63
:03008300020C1B51
:03008B00020B7DE8
:03009300020BCC91
:03009B00020E133F
:0300A300021664DE
:0300AB00021665D5
:0300B300021666CC
:0300BB00021669C1
:0300C300021639E9
:0300CB00021656C4
:0300D300021657BB
:0300DB00021659B1
:0300E30002120DF9
:0300EB00021835C3
:0300F300020E14E6
:0300FB00020E15DD
:0301030002120CD9
:03010B0002120ECF
:0301130002120FC6
:03011B000217AA1E
:030123000216625F
:03012B0002166752
:0301330002166A47
:03013B0002175157
:030143000216633E
:03014B0002166831
:0301530002166B26
:03015B0002175236
:030163000217A9D7
:03016B0002165A1F
:0301730002165C15
:03017B0002165E0B
:0301830002166001
:03018B0002165BFE
:0301930002165DF4
:03019B0002165FEA
:0301A300021661E0
:0301AB00021658E1
:0301B300021638F9
:0402A900C200C201CC
:0302BF000201B683
:0301B600020AE654
:200AE60090E600E0FF74E75F4410F090E1001208CD1202C2E500D2E890E668E0FF74084F48
:200B0600F090E65CE0FF74014FF0E0FF74104FF0E0FF74204FF0E0FF74084FF0D2DDD2AF5C
:200B260090E680E0FF20E11890E680E0FF740A4FF09005DC12175390E680E0FF74F75FF0B3
:200B46001203A510000280F812121080F3C2DC32C0E0C082C083C007C0D075D000D200AF92
:200B66009174EF5FF59190E65D7401F0D0D0D007D083D082D0E032C021C0E0C0F0C082C02D
:200B860083C007C006C005C004C003C002C001C000C0D075D00075820012151EAF9174EFFC
:200BA6005FF59190E65D7410F0D0D0D000D001D002D003D004D005D006D007D083D082D052
:200BC600F0D0E0D02132C021C0E0C0F0C082C083C007C006C005C004C003C002C001C0007A
:200BE600C0D075D00075820112151EAF9174EF5FF59190E65D7420F0D0D0D000D001D002EB
:200C0600D003D004D005D006D007D083D082D0F0D0E0D02132C0E0C082C083C007C0D0757C
:200C2600D000D201AF9174EF5FF59190E65D7408F0D0D0D007D083D082D0E032C0E0C08264
:200C4600C083C007C006C0D075D000D310AF01C3C0D0109802803DE5AA20E319AE08AF0983
:200C660074012508F508E43509F5098E8274F42FF583E599F0AF0990E694EFF00000000081
:200C8600AE08E5097F0090E695EEF000000000E4F508F5091099028000D0D092AFD0D0D0E7
:0A0CA60006D007D083D082D0E032E0
:200CB000E582FF24F0500475823F22EF24F650088F0674572EF5822274302FF58222E582A3
:200CD00075F004A4FFAEF024FEFCEE342FFDE511C4540FF582C007C006C005C004120CB076
:200CF000AB82D004D005D006D0078C828D83EBF074022FFFE43EFEEF24FEFFEE342FFE74D1
:200D10000F5511F582C007C006120CB0AD82D006D0078F828E83EDF022751200902FFE74C7
:200D300066F07F008F057E0074F82DF56FE43EF5707573128E747575407571018E72758234
:1B0D500051C0071211A6D0078512118F82C007120CCED0070FBF080040CA228B
:200D6B00AC82AD83AEF0FFC3E49C74C29D74019EE49F400EEC9460ED9409EE9400EF940004
:200D8B0050087C007DC27E017F008C828D838EF0EF12166C75820122AD82AE83AFF07B0084
:200DAB007C00C3EB9578EC9579501DEB2DF8EC3EF98F02888289838AF01217ABF59920991B
:200DCB00FD0BBB00DD0C80DA22902580E4F5F0120D6B0000000090E61274A2F000000000CA
:200DEB0090E61374E2F090E6917480F00000000090E6917480F000000000E4F508F509D292
:080E0B00ACC2BCD299C29822CE
:202E000012010002EF020140192A425402000102030109027E0104010080FA080B00020E5D
:202E200003000109040000000E0100000D240100015000006CDC0201011224020101020067
:202E400000000000000000030000000C24050201000003000000001C240603FFFFFFFFFFF0
:202E6000FFFFFFFFFFFFFFFFFFFFFF00010203000000000924030401010003000904010010
:202E8000000E0200000F240102B9008600040101000100000B240601020101000000001E4E
:202EA00024070102000400030000000E0000000E000018002A2C0A00012A2C0A001E24079F
:202EC00002020005D0020000000E0000000E00201C002A2C0A00012A2C0A0006240D0101C5
:202EE000041B240402025955593200001000800000AA00389B711001000000001E24050177
:202F000002000400030000000E0000000E000018005458140001545814001E2405020200A8
:202F200005D0020000000E0000000E00201C0054581400015458140006240D010104090497
:202F40000101010E02000007058601000401080B0202020001010904020001020201010590
:202F60002400100105240602030524010003042402020705810310004009040300020A0093
:1B2F800000010705020200020007058402000200F9060002EF0201400100005B
:202F9C00040309041A03540069006D0056006900640065006F0073002E00750073004203F5
:202FBC00480044004D00490032005500530042002E007400760020002D0020004E0075006F
:202FDC006D00610074006F0020004F007000730069007300200042006F00610072006400EE
:202FFC00220330003100320033003400350036003700380039006100620063006400650094
:04301C00660000004A
:010E130032AC
:010E140032AB
:010E150032AA
:200E1600AF82E553254EF558E554354FF559755A02900001E4F0EF2FFF900001E0E0600480
:200E36007582002290E678E0FB74804BF0E0FB30E20C90000AC007121753D00780DB90E60D
:200E560079EFF090E678E0FB20E007900001E0E060F1900001E0E060047582002290E678F6
:200E7600E0FB20E2B490E678E0FB20E13B90E678E0FB74404BF090E678E0FB30E607900098
:200E960001E0E060F1900001E0E0600475820022E55A14FB8B5A7003F5822290000AC007BC
:200EB600121753D007020E2F7A007B00C3EA9558EB95594003020F60C3EA954EEB954F50BF
:200ED60016EA2550F8EB3551F9AC52888289838CF01217ABFC801DEAC3954EF8EB954FF9D8
:200EF600E82555F8E93556F9AE57888289838EF01217ABFC90E679ECF00ABA00010B90E69B
:200F160078E0FE20E007900001E0E060F1900001E0E060047582002290E678E0FE30E2030D
:200F3600020E2F90E678E0FE30E103020EC290E678E0FF74404FF090E678E0FF30E6079070
:200F56000001E0E060F17582002290E678E0FF74404FF090E678E0FF30E607900001E0E055
:200F760060F1900001E0E060047582002275820122AF82900001E4F0EF2FFF4307017401AF
:200F9600B55B08E4B55C0474018001E4FE900001E0E06004758200227C007D0090E678E0BD
:200FB600FB74804BF0E0FB30E21090000AC007C006121753D006D00780D390E679EFF090F3
:200FD600E678E0FB20E007900001E0E060F1900001E0E060047582002290E678E0FB20E280
:200FF600AC90E678E0FB20E11C90E678E0FB74404BF090E678E0FB30E607900001E0E060FA
:20101600F175820022EE600990E678E0FB74204BF090E679E0E4F560F56174012560F8E48D
:201036003561F9C3E8955BE9955C506A90E678E0F920E007900001E0E060F1900001E0E01B
:2010560060047582002290E678E0F930E203020FA374022560F8E43561F9E8B55B0DE9B564
:201076005C0990E678E0F9742049F0A860A9610560E4B560020561AC60AD61E8255DF8E924
:20109600355EF9AB5F90E679E0FA888289838BF012163B02103090E678E0FB20E007900045
:2010B60001E0E060F1900001E0E060047582002290E678E0FB30E203020FA390E678E0FFDB
:2010D60074404FF0EC255DFCED355EFDAF5F90E679E0FE8C828D838FF012163B90E678E077
:2010F600FF30E607900001E0E060F1900001E0E060047582002275820122858269E4F56D7E
:20111600F56EAB62AC63C3E56D9564E56E956540030211A27A0090E678E0FF30E4067A010B
:201136008C078F6A8A070AEF246AF98B06A7068A070AEF246AF9AE6DAF6E056DE4B56D02FB
:20115600056EEE2566FEEF3567FFAD688E828F838DF01217ABF78A4E754F0075506A7551F5
:2011760000755240E4F553F554F555F556F557856982C004C003120E16E582D003D0047051
:2011960003F582220BBB00010C02111C75820122AF827E0090E678E0FD30E4067E01AD7051
:2011B6008D768E050EED2476F9AC6FA7048E4E754F00755076755100755240E4F553F55412
:2011D600F555F556F5578F82C007120E16E582D0077003F5822285715B85725C85735D8542
:1511F600745E85755F8F82120F87E5827003F582227582012273
:01120B0032B0
:01120C0032AF
:01120D0032AE
:01120E0032AD
:01120F0032AC
:0601E800E478FFF6D8FDEB
:1202AD0075140075150075169A75172F75181275192EF1
:2012100090E6B9E0FF24F45003021316EF240A83F582EF241083F583E4734258166E161644
:20123000841694ABC3F7121213121313121312121212121390E582600302132C90E6A0E079
:20125000FF74014FF002132C12141DE582600302132C90E6A0E0FF74014FF002132C12142C
:2012700093E582600302132C90E6A0E0FF74014FF002132C120AE2E582600302132C1215A6
:201290004902132C120A27AF8290E740EFF090E68AE4F090E68B04F002132C90E6BAE0F59B
:2012B00082120A2BE582707490E6A0E0FF74014FF0806990E6BCE0FF757813757900757A8A
:2012D000408F82120A35E582700B90E6A0E0FF74014FF0804790E740E513F090E68AE4F097
:2012F00090E68B04F0803590E6BCE0FF90E6BAE0F5788F82120A4AE582702190E6A0E0FF42
:2013100074014FF0801690E6B9E0F5821203ABE582700990E6A0E0FF74014FF090E6A0E0AE
:20133000FF74804FF022AF828F0653067FEE24F7500302138CEE240A83F582EE240D83F501
:2013500083E47365697C8C808C848C8813131313131313131390E6A022EF30E7067EA27F9B
:20137000E680047EA17FE68E828F832290E6A32290E6A42290E6A52290E6A6229000002287
:2013900090E6B8E0FFBF8002801FBF81028005BF8273803490E740E4F090E741F090E68AEE
:2013B000F090E68B7402F08060E51525E0FFE514420790E740EFF090E741E4F090E68AF094
:2013D00090E68B7402F0804190E6BCE0F582121336AE82AF838E048F05EE4F7003F5822220
:2013F0008C828D83E0FC30E0047F0180027F0090E740EFF090E741E4F090E68AF090E68B3B
:201410007402F08004758200227582012290E6B8E0FF6005BF025F801B90E6BAE0FFBF01A3
:2014300005751500805990E6BAE0FFBF0602804F7582002290E6BAE0703890E6BCE0F58235
:20145000121336AE82AF83E0FD5305FE8E828F83EDF090E6BCE0FF53070F90E6BCE054802D
:20147000C423541FFE90E6832FF0E0FF74204FF0800D7582002290E6B9E0F5820203AB75E9
:2014900082012290E6B8E0FF6005BF0274802590E6BAE0FFBF0202807190E6BAE0FFBF01B9
:2014B00005751501806490E6BAE0FFBF0602805A7582002290E6BAE0704390E6BCE0F58293
:2014D000121336AE82AF83EE4F7003F582228E828F83E0FD4305018E828F83EDF090E6BC7D
:2014F000E0FF53070F90E6BCE05480C423541FFE90E6832FF0E0FF74204FF0800D75820008
:201510002290E6B9E0F5820203AB75820122AF82D20210AF02C202EF600E75161275172E0B
:2015300075189A75192F800C75169A75172F75181275192EA20292AF2290E6B57401F090C9
:20155000E6BBE0FFBF01028019BF02028029BF03028033BF060302160ABF070302161F02D1
:20157000162E7E007F2E8F0690E6B3EEF07E007F2E90E6B4EEF022AF1790E6B3EFF0AE1669
:2015900090E6B4EEF0227D9C7E2F7F8090E6BAE0F5787B008B020BEAB5780280428D008EC6
:2015B000018F028D828E838FF01217AB28F8E439F9880589068A0774012DF9E43EFA8F04E9
:2015D00089828A838CF01217ABF9B9030280067D007E007F00ED4E6006C3E5789B50B5ED8E
:2015F0004E600D8E0790E6B3EFF090E6B4EDF02290E6A0E0FF74014FF0227E907F2F8F063E
:2016100090E6B3EEF07E907F2F90E6B4EEF022AF1990E6B3EFF0AE1890E6B4EEF02290E697
:08163000A0E0FF74014FF0225D
:2001C6007900E94400601B7A0090189F7802759200E493F2A308B800020592D9F4DAF27543
:0201E60092FF86
:01163800327F
:01163900327E
:01163A00327D
:1B163B0020F71130F6138883A88220F509F6A8837583002280FEF280F5F022AE
:011656003261
:011657003260
:01165800325F
:01165900325E
:03004300023D007B
:203D0000020B560002163A0002120B00020C1B00020B7D00020BCC00020E130002166300A5
:203D20000216640002166500021666000216690002163900021656000216570002165900EC
:203D400002120D000216630002183500020E1400020E150002120C0002120E0002120F00CA
:203D60000217AA00021663000216630002166300021662000216670002166A00021751002A
:203D80000216680002166B00021752000217A90002165A0002165C0002165E00021660001F
:183DA00002165B0002165D0002165F0002166100021658000216380073
:01165A00325D
:01165B00325C
:2001EE007800E84400600A7901759200E4F309D8FC7801E84400600C7901900001E4F0A31B
:04020E00D8FCD9FA45
:01165C00325B
:01165D00325A
:01165E003259
:01165F003258
:011660003257
:011661003256
:011662003255
:011663003254
:011664003253
:011665003252
:011666003251
:011667003250
:01166800324F
:01166900324E
:01166A00324D
:01166B00324C
:20166C00D310AF01C3C0D085821A85831B85F01CF51D90E600E05418C423541FFB70047B8B
:20168C0001801690E600E05418C423541FFABA01047A0280027A048A03D2CDD2CC8B787514
:2016AC007900757A00757B009071B075F00BE4C0031217C7851A78851B79851C7A851D7BA6
:2016CC00121836A882A983AAF0FFD00308B8000909B900050ABA00010FEFC313EA13FAE9D3
:2016EC0013F9E813F874FFC398F874FF99FF8FCB7900EB60027401FFEF28F5CAD2CAC29FA7
:20170C00D29EC29DD29C438780D299D0D092AF223098FD859982C29822AF8210990280FB90
:20172C008F9922AF82BF0A0A75820DC007121725D0078F82C007121725D007BF0D06758299
:05174C000A021725222E
:011751003265
:011752003264
:20175300AE82AF8390E600E05418C423541FFD70057CB1FD801C90E600E05418C423541FA4
:20177300FBBB01067A617B0180047AC27B028A048B058C788D79157874FFB578021579E53B
:1617930078457970F1EE24FFFAEF34FFFB8A068B07EA4B70DD22BB
:0117A900320D
:0117AA00320C
:0D01B90075817B12189BE58260030201B680
:1C17AB0020F71430F6148883A88220F507E6A88375830022E280F7E49322E0224D
:2017C700AAF0FBE5828578F0A4FCADF0E5838578F0A42DFDE435F0FEE5828579F0A42DFD8F
:2017E700E5F03EFEE433FFEA8578F0A42EFEE5F03FFFE5838579F0A42EFEE5F03FFFE58261
:20180700857AF0A42EFEE5F03FFFEB8578F0A42FFFEA8579F0A42FFFE583857AF0A42FFF72
:0E182700E582857BF0A42F8EF08D838C8222CB
:011835003280
:20183600FB7A20E4FCFDFEFFE5822582F582E58333F583E5F033F5F0EB33FB4017DAE980EB
:2018560042E5822582F582E58333F583E5F033F5F0EB33FBEC33FCED33FDEE33FEEF33FF1A
:20187600EC9578ED9579EE957AEF957B4013EC9578FCED9579FDEE957AFEEF957BFF438264
:0518960001DABEEB22A7
:04189B007582002230
:00000001FF
