:2002AC00AF8290E6C2E4F0BF010790E60174E3F02290E60174E0F02290E680E0440AF090CD
:2002CC0005DC12224B90E680E054F7F090E6827445F07445F090E670E4F090E67AE0440188
:2002EC00F01209E2120BE07D9C7E2F7F808D828E838FF01222A32DFDE43EFE8D828E838FD4
:20030C00F01222A3C313FC1C74022DFDE43EFEEC60288D828E838FF01222A3F582C007C074
:20032C0006C005C004120BE8D004D005D006D00774022DFDE43EFE1C80D5758220C007C0F8
:20034C0006C005120BE8D005D006D0078D828E838FF01222A3C313FC1C74022DFDE43EFE1B
:20036C00EC60288D828E838FF01222A3F582C007C006C005C004120BE8D004D005D006D0A6
:20038C000774022DFDE43EFE1C80D575820D020BE8020ADCAF827E00C007C006120BFE756C
:2003AC00823A120BE8850882120BFE75823A120BE8850982120BFE75823A120BE8850A829E
:2003CC00120BFE75820D120BE8D006D007EF24FB50030205ECEF2F2F9003E8730203F702B3
:2003EC00045C0204C102052602058AE50845B2602AE5096007E50845B2FF8007E508F4FD01
:20040C0055B2FF8FB2E50A6007E5084580FF8007E508F4FD5580FF8F808028E50A6007E557
:20042C00084580FF8007E508F4FD5580FF8F80E5096007E50845B2FF8007E508F4FD55B2F8
:20044C00FF8FB2E508558060027401FFFE0205ECE50845B3602AE5096007E50845B3FF809F
:20046C0007E508F4FD55B3FF8FB3E50A6007E5084590FF8007E508F4FD5590FF8F9080281B
:20048C00E50A6007E5084590FF8007E508F4FD5590FF8F90E5096007E50845B3FF8007E52C
:2004AC0008F4FD55B3FF8FB3E508559060027401FFFE0205ECE50845B4602AE5096007E5AB
:2004CC000845B4FF8007E508F4FD55B4FF8FB4E50A6007E50845A0FF8007E508F4FD55A0DF
:2004EC00FF8FA08028E50A6007E50845A0FF8007E508F4FD55A0FF8FA0E5096007E50845E4
:20050C00B4FF8007E508F4FD55B4FF8FB4E50855A060027401FFFE0205ECE50845B5602A52
:20052C00E5096007E50845B5FF8007E508F4FD55B5FF8FB5E50A6007E50845B0FF8007E51F
:20054C0008F4FD55B0FF8FB08028E50A6007E50845B0FF8007E508F4FD55B0FF8FB0E509DE
:20056C006007E50845B5FF8007E508F4FD55B5FF8FB5E50855B060027401FFFE8062E508DB
:20058C0045B6602AE5096007E50845B6FF8007E508F4FD55B6FF8FB6E50A6007E50845B1A1
:2005AC00FF8007E508F4FD55B1FF8FB18028E50A6007E50845B1FF8007E508F4FD55B1FF3C
:2005CC008FB1E5096007E50845B6FF8007E508F4FD55B6FF8FB6E50855B160027401FFFE18
:2005EC008E8222AF82C007121A79E582D0076004758201228F82C007120B1CE582D00760B5
:20060C000475820122BF80028027BF81030206F0BF8203020732BF830302076EBF85030209
:20062C000795BF86030207FEBFA2030208480209DE90E6B8E0FFBF402790E6BBE0FE7F0063
:20064C0090E6BAE07C004207EC420690E6BCE0FDEF4E70088D821202AC0206EC75820022E5
:20066C0090E6A0E0FF20E1F890E740744EF090E7417445F090E742744DF090E7437449F0E5
:20068C00900015E0FF90E744F0E58030E2047F0080027F0190E745EFF090E7467411F090C6
:2006AC00E7477426F090E74874FFF090E74974FFF090E74A7420F090E74B7415F090E74CEE
:2006CC007403F090E74D7431F090E74EE4F090E74FF090E68AF00000000090E68B7410F09A
:2006EC007582012290E6B8E0FFBF400280030209DE90E68BE4F090E6A0E0FF20E1F890E720
:20070C0040E0FCA3E0FDA3E0FEA3E0FF90E6BCE0F55C90E6BAE0F55D8C828D838EF0EF12CC
:20072C0010067582012290E6B8E0FFBF400280030209DE90E68BE4F090E6A0E0FF20E1F840
:20074C0090E740E0FCA3E0FDA3E0FEA3E0FF90E6BAE0F55C8C828D838EF0EF120EF1758283
:20076C00012290E6B8E0FFBF400280030209DE90E6BAE0FCA3E0FDA3E0FEA3E08C828D8322
:20078C008EF01217797582012290E6B8E0FFBFC00280030209DE90E6BAE0FF90E6BBE0FEFB
:2007AC0090E6BCE0FD90E6BDE0FCEF24FB4005EE24F850047582002290E6A0E0FB20E1F85B
:2007CC008EF005F07401800225E0D5F0FBF5088D098C0A8F821203A0AF8290E740EFF09098
:2007EC00E68AE4F00000000090E68B7401F07582012290E6B8E0FFBF400280030209DE901F
:20080C00E6BCE0FF90E6BDE0FEEF7004758201221FBF0400501590E6BAE0FDEEC454F0244F
:20082C00802DF55C8F82120E81800DEEC454F02480F55C8F82120E817582012290E6B8E0AA
:20084C00FFBFC002800302093090E6BBE0FE7F0090E6BAE0FD7C00900000ED4FF0EC4EA39E
:20086C00F090E6BFE0FE7F0090E6BEE0FD7C00900002ED4FF0EC4EA3F0900002E0FEA3E0DF
:20088C00FF4E70030209DA90E6A0E0FF20E1F8900002E0FEA3E0FFC3EE9440EF940040047B
:2008AC007E407F007D008D037C00C3EB9EEC9F5010ED2440F582E434E7F5837423F00D80DC
:2008CC00E590E6BCE024FF9207900000E0FCA3E0FD8E037524407525E78B238C828D83C0F6
:2008EC0007C006C005C004C0031217CCD003D004D005D006D00790E68AE4F0000000009051
:20090C00E68BEBF0900000EE2CF0EF3DA3F0900002E0FCA3E0FD900002ECC39EF0ED9FA33A
:20092C00F002088590E6B8E0FFBF400280030209DA90E6BBE0FE7F0090E6BAE0FD7C00900F
:20094C000004ED4FF0EC4EA3F090E6BFE0FE7F0090E6BEE0FD7C00900006ED4FF0EC4EA3D0
:20096C00F0900006E0FEA3E0FF4E606290E68BE4F090E6A0E0FF20E1F890E68BE0FF7E0054
:20098C0090E6BCE024FF9208900004E0FCA3E0FD8F267527407528E78C828D83C007C006CC
:2009AC00C005C00412191FD004D005D006D007900004EF2CF0EE3DA3F0900006E0FCA3E0B0
:2009CC00FD900006ECC39FF0ED9EA3F0809375820122758200220000000090E602E4F0008A
:2009EC0000000090E603E4F00000000090E609E4F00000000090E600E0FF74E75F90E600C6
:200A0C004410F00000000090E60174E3F00000000090E610E4F00000000090E61174A0F0E3
:200A2C000000000090E61274A2F00000000090E61374E2F00000000090E61474DAF0000085
:200A4C00000090E615E4F00000000090E6187410F00000000090E619740CF000000000909A
:200A6C00E61A740CF00000000090E61BE4F00000000090E6227402F00000000090E623E41A
:200A8C00F00000000090E6247404F00000000090E625E4F00000000090E60B7403F0000001
:200AAC00000090E6047480F00000000090E6047482F00000000090E6047484F0000000000A
:200ACC0090E6047486F00000000090E604E4F02290E6A2E0FF20E13790E7C0740AF090E7EB
:200AEC00C17420F090E7C2E4F090E7C3F090E7C4F090E7C5F090E7C6E4F090E7C77402F062
:100B0C0090E7C8E4F090E7C9F090E68F740AF02201
:0123BD00001F
:200B1C00AF82BF2002800EBF21028059BF2203020BD8020BDCC2E890E6B57401F090E68B71
:200B3C00E4F090E6B5F0D2E890E68BE0FFBF07F8000000007E007F00EE2416FCEF3400FD11
:200B5C00EE2440F582EF34E7F583E0FB8C828D83F00EBE00010FC3EE9407EF6480948040F6
:200B7C00D77582012290E6B57401F07E007F00EE2440FCEF34E7FDEE2416F582EF3400F5CF
:200B9C0083E0FB8C828D83F00EBE00010FC3EE9407EF6480948040D790E68AE4F0000000D3
:200BBC000090E68B7407F00000000090E6A0E0FF20E1F890E6B5E4F075820122758201228C
:040BDC0075820022FC
:0723BE0060090000000008A7
:200BE000D2B3E5B575B5FF22E5827909C392B3137820D8FE00D9F6D2B37820D8FE22E582CE
:200C0000FFC4540FFE53060FBE0A0050047D3080027D37ED2EF582C007120BE8D0075307BA
:200C20000FBF0A0050047E3080027E37EE2FF582020BE8AE82E583FFC4540FFC53040F7D7D
:200C400000BC0A0050047D3080027D37ED2CF582C007C006120BE8D006D0078F0553050FCD
:200C60008D04BC0A0050047C3080027C37EC2DF582C007C006120BE8D006D0078E04EFC4D4
:200C8000CCC4540F6CCC540FCC6CCC53040F7D00BC0A0050047D3080027D37ED2CF582C092
:200CA00007C006120BE8D006D007740F5EFFFEBE0A0050047E3080027E37EE2FF582020B35
:200CC000E8AC82AD83AEF0FFC4540FF853000F79007A007B00B80A0050047B3080027B374D
:200CE000EB28F582C007C006C005C004120BE8D004D005D006D0078F0353030F8B02BA0AB1
:200D00000050047A3080027A37EA2BF582C007C006C005C004120BE8D004D005D006D007A5
:200D20008E00EFC4C8C4540F68C8540FC868C853000F79007A007B00B80A0050047B3080E7
:200D4000027B37EB28F582C007C006C005C004120BE8D004D005D006D0078E0353030F8B63
:200D600002BA0A0050047A3080027A37EA2BF582C007C006C005C004120BE8D004D005D05C
:200D800006D0078D00EEC4C8C4540F68C8540FC868C8F9EFC454F049EFC4540F53000F7993
:200DA000007A007B00B80A0050047B3080027B37EB28F582C007C006C005C004120BE8D0D4
:200DC00004D005D006D0078D0353030F8B02BA0A0050047A3080027A37EA2BF582C007C003
:200DE00006C005C004120BE8D004D005D006D0078C00EDC4C8C4540F68C8540FC868C8F959
:200E0000EEC454F0498E02EFC4CAC4540F6ACA540FCA6ACA53000F79007A007B00B80A0038
:200E200050047B3080027B37EB28F582C007C006C005C004120BE8D004D005D006D0077410
:200E40000F5CFFFEBE0A0050047E3080027E37EE2FF582020BE8AD82AE83AFF08D828E8381
:200E60008FF01222A3FC60188C820DBD00010EC007C006C005120BE8D005D006D00780DC8C
:010E8000224F
:200E8100AF827DF17E0EEF75F003A4241DF582740035F0F583E0FBA3E0FCA3E0FF8B828CED
:200EA100838FF01222A3F9A31222A3FA74022BFBE43CFC900008E9F0EAA3F0900008E0F9D4
:200EC100A3E0FA496029E92DF582EA3EF583E55CF08B828C838FF01222A3F9A31222A3FA85
:100EE100A3AB82AC83900008E9F0EAA3F080CC22A6
:2022C400BA000000C700D000D900E200EB00F400FD0006017A02BB0500002F0036003D002D
:2022E40044004B0052005900600075007C0083008A00910098009F00A600CA00D300DC005B
:20230400E500EE00F7000001090170022E04A105FC060000160066022404B905120700001B
:202324001000250029003100340038003B003F004200460049004D005000540057005B00B0
:202344005E0062006500700077007A007E008100850088008C008F00930096009A009D006C
:20236400A100A400A800AC00B700BC00C000CC00CE00D500D700DE00E000E700E900F000C9
:20238400F200F900FB00020104010B010E0189028B0237043904CA05CC0514071607900830
:0423A4009D08000090
:0F23C500C82280DE2280182380242380C4228037
:200EF100AC82AD83AEF0FFAB5C8B021BEA6019C2B3EC13920092B2EFC313FFEE13FEED13C7
:200F1100FDEC13FCD2B380E1C2B322E5821392B1D2B313C2B392B1D2B313C2B392B1D2B369
:200F310013C2B392B1D2B313C2B392B1D2B313C2B392B1D2B313C2B392B1D2B313C2B39246
:200F5100B1D2B300C2B322759AE7759B80A882C2B3E59C1392B1D2B313C2B392B1D2B313CF
:200F7100C2B392B1D2B313C2B392B1D2B313C2B392B1D2B313C2B392B1D2B313C2B392B168
:200F9100D2B313C2B392B1D2B3D8C4C2B322759AE7759B80A882C2B3859C80D2B3D8F7C25C
:200FB100B322AF82E582A2B01392B1D2B3C2B3A2B01392B1D2B3C2B3A2B01392B1D2B3C280
:200FD100B3A2B01392B1D2B3C2B3A2B01392B1D2B3C2B3A2B01392B1D2B3C2B3A2B0139270
:200FF100B1D2B3C2B3A2B01392B1D2B300C2B3F582228F8222AF82AE83ADF0FC90002CEF21
:20101100F0EEA3F0EDA3F0ECA3F0900030E55CF0900031E55DF02290002CE0FCA3E0FDA38E
:20103100E0FEA3E0FFEC4D4E4F700302121DE5BA20E1FBE5BA20E2FB90002CE0FCA3E0FD76
:20105100A3E0FEA3E0FFC3ED9402EE9400EF9400B3E433FB600A780079027A007B00800892
:201071008C008D018E028F0390E68DE0FF750B80750CE7750DC0750EE790002CE0FBA3E013
:20109100FCA3E0FDA3E0FE880F8910E4F511F512EBB50F0EECB5100AEDB51106EEB5120239
:2010B100800302119AE824FFFDE934FFFE5305F888048D03ECC39BFCEEC423CDC423541F1F
:2010D1006DCD541FCD6DCDFE8D061DEE603FAB0DAE0E850B82850C83E0FA050BE4B50B02E6
:2010F100050C8A82C007C006C005C004C003120FB3AA82D003D004D005D006D0078B828E25
:2011110083EAF0050DE4B50DBF050E80BB850B82850C83E0FE050BE4B50B02050C90000B36
:20113100EEF090000AE4F090000C7401F08C0690000CE0FD6043EE60401E900031E0FD3029
:20115100E005EE7002D2B290000BE0FD13920192B1EDC313FD90000BF030B00C90000CE0A1
:20117100FD90000AE0FC4DF0D2B3C2B390000CE025E0FD90000CF080B6AD0DAE0E90000A64
:20119100E0FC8D828E83F08051E9C423C8C423541F68C8541FC868C8F9880618EE603BAD1F
:2011B1000DAE0E850B82850C83E0FC050BE4B50B02050C8C82C007C006C005C000120FB398
:2011D100AC82D000D005D006D0078D828E83ECF0050DE4B50DC3050E80BF90E68DE4F0904E
:2011F100E68FEFF090002CE0FCA3E0FDA3E0FEA3E0FF90002CECC3950FF0ED9510A3F0EE5D
:201211009511A3F0EF9512A3F0021028900030E4F02290002CE0FCA3E0FDA3E0FEA3E0FF50
:20123100EC4D4E4F700302136BE5BA20E1FB90002CE0FCA3E0FDA3E0FEA3E0FFC3ED9402D8
:20125100EE9400EF9400B3E433FB600A780079027A007B0080088C008D018E028F0390E627
:201271008DE090002CE0FCA3E0FDA3E0FEA3E0FF88138914E4F515F516ECB5130EEDB5142C
:201291000AEEB51506EFB516028003021338750B80750CE7E824FFFEE934FFFF5306F88E7E
:2012B10005E8C39DFDEFC423CEC423541F6ECE541FCE6ECEFF8E071EEF601F850B82850C59
:2012D10083E0FF050BE4B50B02050C8F82C006C005120F1CD005D00680DB850B82850C83CF
:2012F100E090000DF090000E7401F08D0790000EE0FE6039EF60361F900031E0FE30E0056C
:20131100EF7002D2B290000DE0FE13920292B1EEC31390000DF0D2B3C2B390000EE025E0A4
:20133100FE90000EF080C6758240120F5890E68DE4F090002CE0FCA3E0FDA3E0FEA3E0FF28
:2013510090002CECC39513F0ED9514A3F0EE9515A3F0EF9516A3F0021223900030E4F0220B
:20137100900031E0FF30E1047FFF80027F00EF13920390002CE0FBA3E0FCA3E0FDA3E0FE7A
:20139100EB4C4D4E700302153FE5BA20E2FB90002CE0FBA3E0FCA3E0FDA3E0FEC3EC9402A9
:2013B100ED9400EE9400B3E433FA600CE4F517751802F519F51A80088B178C188D198E1A31
:2013D100AD17AE188D03EEC423CBC423541F6BCB541FCB6BCBFCED540760027401FCC00760
:2013F100EC2BFC750DC0750EE790002CE0F8A3E0F9A3E0FAA3E0FF8D178E18E4F519F51AC3
:20141100E8B5170EE9B5180AEAB51906EFB51A028005D0070214DBD007ED24FFF9EE34FF6D
:20143100FA5301F88906EDC39EFEEAC423C9C423541F69C9541FC969C9FA890519ED6033C5
:20145100AA0DAD0E8F82C007C006C005C004C002C001120FB3A882D001D002D004D005D045
:2014710006D0078A828D83E8F0050DE4B50DCB050E80C790000FE4F09000107401F0A20390
:2014910092B1900010E0FD6031EE602E1E900031E0FD30E005EE7002D2B230B00C9000102D
:2014B100E0FD90000FE0FA4DF0D2B3C2B3900010E025E0FD900010F080C8AD0DAE0E90002E
:2014D1000FE0FA8D828E83F080378B068E051EED602FAB0DAD0E8F82C007C006C005C004F3
:2014F100C003120FB3AA82D003D004D005D006D0078B828D83EAF0050DE4B50DCF050E80DE
:20151100CB90E68FECF090002CE0FBA3E0FCA3E0FDA3E0FE90002CEBC39517F0EC9518A3B5
:20153100F0ED9519A3F0EE951AA3F0021383900030E4F022900031E0FF30E1047FFF800249
:201551007F00C00790002CE0FBA3E0FCA3E0FDA3E0FEEB24FFF8EC34FFF9ED34FFFAEE34C3
:20157100FFFF5300F88806900011EBC39EF0881BE9C423C51BC423541F651BC51B541FC561
:201591001B651BC51BF51CEAC42354E0451CF51C8A1DEFC423C51DC423541F651DC51D54C6
:2015B1001FC51D651DC51DF51ED007AB1BAC1CAD1DAE1E151B74FFB51B0C151CB51C07150A
:2015D1001DB51D02151EEB4C4D4E600B8F82C007120F1CD00780D4EF13920492B1900011DD
:2015F100E0FFEF60141F900031E0FE30E005EF7002D2B2D2B3C2B380E9900030E4F0229037
:20161100002CE0FCA3E0FDA3E0FEA3E0FFEC4D4E4F6051E5BA20E1FB90E68DE0FF30050BEA
:201631008F82C007120F9FD00780098F82C007120F58D00790E68DE4F090002CE0FBA3E088
:20165100FCA3E0FDA3E0FE8F0079007A007F0090002CEBC398F0EC99A3F0ED9AA3F0EE9FCA
:20167100A3F0809B900030E4F02290002CE0FCA3E0FDA3E0FEA3E0FFEC4D4E4F7003021778
:2016910031E5BA20E2FB90002CE0FCA3E0FDA3E0FEA3E0FFC3EC9440ED9400EE9400EF9448
:2016B10000B3E433FB600A784079007A007B0080088C008D018E028F03750DC0750EE788CC
:2016D10007EF602DAD0DAE0E758200C007C006C005C000120FB3AC82D000D005D006D007A3
:2016F1008D828E83ECF0050DE4B50D02050E1F80D090E68FE8F090002CE0FCA3E0FDA3E029
:20171100FEA3E0FF79007A007B0090002CECC398F0ED99A3F0EE9AA3F0EF9BA3F002167BF3
:20173100900030E4F022900030E0FF24F8500122EF240A83F582EF240C83F583E473785F55
:201751006265686B70751717171717171717021028021223021371021545D205021610C22D
:201771000502161012167B22AA82AB83ACF0FDD2B30000000000000000000000C2B3000079
:15179100000000001ABAFFE71BBBFFE31CBCFFDF1DBDFFDB2245
:0623D40000000000000003
:2017A60090E678E0FF30E0F8EF30E202D322C32290E678E0FF30E0F8EF30E202D322EF2095
:2017C600E102D322C322AE82AF833007047DAA80027DA29023A875F080C007C006C005123D
:2017E6000E56D005D006D0073007047C3180027C308C82C007C006C005120BE875822C124D
:201806000BE8D005D006D0078E828F83C007C006C005120C3375822C120BE8AB237C008B8B
:20182600828C83120C33758229120BE875820D120BE8D005D006D00790E678E0FC20E6F848
:2018460090E6787480F090E679EDF0C007C006C0051217B6D005D006D0075002D3228F0457
:2018660090E679ECF0C007C006C0051217B6D005D006D0075002D32290E679EEF0C00512F9
:2018860017B6D0055002D32290E6787480F090E67974014DF01217A65002D32290E679E001
:2018A6001217A65002D3227F00AD237E001DBDFF011E8F037C00C3EB9DEC64808EF063F04D
:2018C6008095F0501FEF2524FDE43525FE90E679E08D828E83F0C0071217A6D0075002D3AC
:2018E600220F80C590E6787420F0C0071217A6D0075002D322EF2524FFE43525FE90E679E4
:20190600E08F828E83F01217A65002D32290E6787440F090E679E0C322AE82AF83300804D5
:201926007DAA80027DA29023B275F080C007C006C005120E56D005D006D0073008047C315C
:2019460080027C308C82C007C006C005120BE875822C120BE8D005D006D0078E828F83C062
:2019660007C006C005120C3375822C120BE8AB267C008B828C83120C33758229120BE87502
:20198600820D120BE8D005D006D00790E678E0FC20E6F890E6787480F090E679EDF0C007FE
:2019A600C006C0051217B6D005D006D0075002D3228F0490E679ECF0C007C006C005121715
:2019C600B6D005D006D0075002D32290E679EEF0C0051217B6D0055002D322AE27AF287CCD
:2019E60000C3EC9526502A8E828F83E0FBA3AE82AF8390E679EBF0C007C006C005C0041209
:201A060017A6D004D005D006D0075002D3220C80D090E678E0FF4440F090E678E0FF20E6F6
:201A2600F890E6787480F090E679EDF0C0051217A6D0055002D32290E678E0FF4440F09089
:111A4600E678E0FF20E6F890E678E0FF30E1D2C322BF
:1523A80070726F6D52656164280070726F6D57726974652800CD
:201A5700020BE0AF82BF0A028003BF0D0C75820A120BE875820D020BE88F82020BE875822F
:021A770030221B
:20021200752901752A00752B01752C01752D2A752E2C752F0A753000753100753200753368
:2002320000753400753500753600753700753800753905753A00753B00753C20753D1C752F
:200252003E00753F0075400475410075420075432A75442C75450A75460075475475485809
:20027200754914754A00754B00754C00754D18754E00754F0075502075511C7552007554A2
:01029200006B
:201A7900AF82BF01028015BF8103021B6FBF8203021B6FBF8303021B6F021BAD90E6B8E07D
:201A9900FFBF210280047582002290E68AE4F090E68B741AF00000000090E6A0E0FF20E166
:201AB900F890E68BE0FFBF1AF890E742E0FF8F2B90E743E0FF8F2C90E742E0FF1FEF2F25C4
:201AD900E02443F987078F2D90E742E0FF1FEF2F25E0244304F987078F2E90E742E0FF1F23
:201AF900EF2F25E024432402F987078F2F90E742E0FF1FEF2F25E024432403F987078F302A
:201B190090E743E0FF1FEF2F25E0244BF987078F3B90E743E0FF1FEF2F25E0244B04F98743
:201B3900078F3C90E743E0FF1FEF2F25E0244B2402F987078F3D90E743E0FF1FEF2F25E01C
:201B5900244B2403F987078F3E90E68AE4F090E68BF07582012290E6B57401F07E007F0016
:201B7900EE2440F582EF34E7F583EE2429F9E7FDF00EBE00010FC3EE941AEF648094804097
:201B9900DF90E68AE4F00000000090E68B741AF075820122758200228553822290E6BAE03B
:201BB900F55375820122AD5CAE5DAF5E8D828E838FF0E5541222187582012290E6BAE0F546
:201BD900547401B554028003021CA80000000090E618E4F00000000090E6047480F000000F
:201BF900000090E6047402F00000000090F0007455F090F0017446F090F0027455F090F0CD
:201C1900037456F090F0047455F07401B52B0890F005744AF0800690F0057452F090F006DA
:201C39007455F07401B52C0890F0077444F0800690F0077448F090F0087455F090F009744E
:201C59004EF00000000090E690E4F00000000090E691740AF00000000090E6497482F00039
:201C790000000090E604E4F00000000090E6187410F00000000090E6047480F0000000009D
:131C990090E6047406F00000000090E604E4F075820122EC
:040000000201B9320E
:01000B0032C2
:0100130032BA
:01001B0032B2
:0100230032AA
:01002B0032A2
:03003300021D1893
:01003B003292
:01004300328A
:01004B003282
:01005300327A
:01005B003272
:01006300326A
:03006B00021D1B58
:030073000222174F
:03007B00021E0A58
:03008300021DE07B
:03008B00021D4211
:03009300021D91BA
:03009B00021E073B
:0300A300022241F5
:0300AB00022242EC
:0300B300022243E3
:0300BB00022246D8
:0300C30002221600
:0300CB00022233DB
:0300D300022234D2
:0300DB00022236C8
:0300E300021E0CEE
:0300EB000222BF2F
:0300F300021E08E2
:0300FB00021E09D9
:03010300021E0BCE
:03010B00021E0DC4
:03011300021E0EBB
:03011B000222A21B
:0301230002223F76
:03012B0002224469
:030133000222475E
:03013B0002224954
:0301430002224055
:03014B0002224548
:030153000222483D
:03015B0002224A33
:030163000222A1D4
:03016B0002223736
:030173000222392C
:03017B0002223B22
:0301830002223D18
:03018B0002223815
:0301930002223A0B
:03019B0002223C01
:0301A30002223EF7
:0301AB00022235F8
:0301B30002221510
:04029300C209C20AD0
:0302A9000201B699
:0301B600021CAC7C
:201CAC0090E600E0FF74E75F90E6004410F090E100121A571202C4E500D2E890E668E044E2
:201CCC0008F090E65CE04401F090E65CE04410F090E65CE04420F090E65CE04408F0D2DD80
:201CEC00D2AF90E680E0FF20E11590E680E0440AF09005DC12224B90E680E0FF54F7F01246
:201D0C00039D10090280F8121E0F80F3C2DC32C0E0C082C083C007C0D075D000D209AF9126
:201D2C0074EF5FF59190E65D7401F0D0D0D007D083D082D0E032C022C0E0C0F0C082C08362
:201D4C00C007C006C005C004C003C002C001C000C0D075D0007582001220FBAF9174EF5F60
:201D6C00F59190E65D7410F0D0D0D000D001D002D003D004D005D006D007D083D082D0F0E9
:201D8C00D0E0D02232C022C0E0C0F0C082C083C007C006C005C004C003C002C001C000C0D0
:201DAC00D075D0007582011220FBAF9174EF5FF59190E65D7420F0D0D0D000D001D002D01B
:201DCC0003D004D005D006D007D083D082D0F0D0E0D02232C0E0C082C083C007C0D075D0A4
:1B1DEC0000D20AAF9174EF5FF59190E65D7408F0D0D0D007D083D082D0E0323B
:202E000012010002EF020140501DB76002000102000109027E0104010080FA080B00020EB5
:202E200003000109040000000E0100000D240100015000006CDC0201011224020101020067
:202E400000000000000000030000000C24050201000003000000001C240603FFFFFFFFFFF0
:202E6000FFFFFFFFFFFFFFFFFFFFFF00010203000000000924030401010003000904010010
:202E8000000E0200000F240102B9008600040101000100000B240601020101000000001E4E
:202EA00024070102000400030000000E0000000E000018002A2C0A00012A2C0A001E24079F
:202EC00002020005D0020000000E0000000E00201C002A2C0A00012A2C0A0006240D0101C5
:202EE000041B240402025955593200001000800000AA00389B711001000000001E24050177
:202F000002000400030000000E0000000E000018005458140001545814001E2405020200A8
:202F200005D0020000000E0000000E00201C0054581400015458140006240D010104090497
:202F40000101010E02000007058601000401080B0202020001010904020001020201010590
:202F60002400100105240602030524010003042402020705810310000809040300020A00CB
:1B2F800000010705840200020007050202000200F9060002EF0201400100005B
:202F9C00040309040A034A0041004E0049001203480044004D00490032005500530042007F
:022FBC00000013
:011E070032A8
:011E080032A7
:011E090032A6
:011E0A0032A5
:011E0B0032A4
:011E0C0032A3
:011E0D0032A2
:011E0E0032A1
:0601E800E478FFF6D8FDEB
:1202970075560075570075589A75592F755A12755B2E7B
:201E0F0090E6B9E0FF24F45003021F0AEF240A83F582EF241083F583E47341560A6B0A0A63
:201E2F00800A869EB8EC1E1E1F1E1F1F1E1F1E1E1E1E121F81E5826003021F1F90E6A0E023
:201E4F00FF4401F0021F1F12200AE5826003021F1F90E6A0E0FF4401F0021F1F122078E5C0
:201E6F00826003021F1F90E6A0E0FF4401F0021F1F122126021F1F121BB1AF8290E740EF76
:201E8F00F090E68AE4F090E68B7401F0021F1F90E6BAE0F582121BB5E5826003021F1F90C6
:201EAF00E6A0E0FF4401F0806790E6BCE0FF755C55755D00755E408F82121BBFE582700A98
:201ECF0090E6A0E0FF4401F0804690E740E555F090E68AE4F090E68B7401F0803390E6BC03
:201EEF00E0FF90E6BAE0F55C8F82121BD4E582701F90E6A0E0FF4401F0801590E6B9E0F5C8
:201F0F00821205EFE582700890E6A0E0FF4401F090E6A0E04480F022AF828F0653067FEEC9
:201F2F0024F75003021F7DEE240A83F582EE240D83F583E473565A6D7D717D757D791F1FCE
:201F4F001F1F1F1F1F1F1F90E6A022EF30E7067EA27FE680047EA17FE68E828F832290E60E
:201F6F00A32290E6A42290E6A52290E6A6229000002290E6B8E0FFBF8002801FBF81028075
:201F8F0005BF826F803490E740E4F090E741F090E68AF090E68B7402F0805CE55725E0FF23
:201FAF00E556420790E740EFF090E741E4F090E68AF090E68B7402F0803D90E6BCE0F582CF
:201FCF00121F27AE82AF83EE4F7003F582228E828F83E0FE30E0047F0180027F0090E740A3
:201FEF00EFF090E741E4F090E68AF090E68B7402F08004758200227582012290E6B8E0FF4C
:20200F006005BF0257801190E6BAE0FFBF010575570080517582002290E6BAE0703A90E6E9
:20202F00BCE0F582121F27AE82AF83E0FD5305FE8E828F83EDF090E6BCE0FF53070F90E6A2
:20204F00BCE05480C423541FFE90E6832FF090E683E0FF4420F0800D7582002290E6B9E0B0
:20206F00F5820205EF7582012290E6B8E0FF6005BF026C801B90E6BAE0FFBF020280699045
:20208F00E6BAE0FFBF0105755701805C7582002290E6BAE0704590E6BCE0F582121F27AED7
:2020AF0082AF83EE4F7003F582228E828F83E0FD4305018E828F83EDF090E6BCE0FF530762
:2020CF000F90E6BCE05480C423541FFE90E6832FF090E683E0FF4420F0800D75820022902A
:2020EF00E6B9E0F5820205EF75820122AF82D20B10AF02C20BEF600E75581275592E755A28
:20210F009A755B2F800C75589A75592F755A12755B2EA20B92AF2290E6B57401F090E6BB77
:20212F00E0FFBF0102801DBF0202802DBF03028037BF06030221E9BF07030221FEBF0A01DF
:20214F002202220D7E007F2E8F0690E6B3EEF07E007F2E90E6B4EEF022AF5990E6B3EFF0F1
:20216F00AE5890E6B4EEF0227E9C7D2F7F8090E6BAE0F55C7B008B020BEAB55C0280428E9A
:20218F00008D018F028E828D838FF01222A328F8E439F9880689058A0774012EF9E43DFA01
:2021AF008F0489828A838CF01222A3F9B9030280067E007D007F00EE4D6006C3E55C9B50CB
:2021CF00B5EE4D600D8D0790E6B3EFF090E6B4EEF02290E6A0E04401F0227E907F2F8F062F
:2021EF0090E6B3EEF07E907F2F90E6B4EEF022AF5B90E6B3EFF0AE5A90E6B4EEF02290E629
:06220F00A0E04401F022F2
:2001C600791DE94400601B7A019023BD7815759200E493F2A308B800020592D9F4DAF275E9
:0201E60092FF86
:012215003296
:012216003295
:012217003294
:1B22180020F71130F6138883A88220F509F6A8837583002280FEF280F5F022C5
:012233003278
:012234003277
:012235003276
:012236003275
:03004300023F0079
:203F0000021D1B0002221700021E0A00021DE000021D4200021D9100021E07000222400067
:203F20000222410002224200022243000222460002221600022233000222340002223600A2
:203F4000021E0C00022240000222BF00021E0800021E0900021E0B00021E0D00021E0E0017
:203F60000222A20002224000022240000222400002223F00022244000222470002224900AC
:203F8000022245000222480002224A000222A100022237000222390002223B0002223D00A1
:183FA0000222380002223A0002223C0002223E000222350002221500FB
:012237003274
:012238003273
:2001EE007800E84400600A7900759200E4F309D8FC7815E84400600C7901900000E4F0A309
:04020E00D8FCD9FA45
:012239003272
:01223A003271
:01223B003270
:01223C00326F
:01223D00326E
:01223E00326D
:01223F00326C
:01224000326B
:01224100326A
:012242003269
:012243003268
:012244003267
:012245003266
:012246003265
:012247003264
:012248003263
:012249003262
:01224A003261
:20224B00AE82AF8390E600E05418C423541FFDB40100E433FD60067CB17D00801C90E6000D
:20226B00E05418C423541FFBBB01067A617B0180047AC27B028A048B058C5C8D5D155C7487
:16228B00FFB55C02155DE55C455D70F11EBEFF011FEE4F70E422C7
:0122A100320A
:0122A2003209
:0D01B90075815E1222C0E58260030201B66E
:1C22A30020F71430F6148883A88220F507E6A88375830022E280F7E49322E0224A
:0122BF0032EC
:0422C0007582002201
:00000001FF
