:2002AC00AF8290E6C2E4F0BF010790E60174E3F02290E60174E0F02290E680E0FF740A4FCF
:2002CC00F09005DC12223E90E680E0FF74F75FF090E6827445F0F090E670E4F090E67AE095
:2002EC00FF74014FF01209E6120BE07D9C7E2F7F808D828E838FF01222962DFDE43EFE8D3C
:20030C00828E838FF0122296C313FC1C74022DFDE43EFEEC60288D828E838FF0122296F575
:20032C0082C007C006C005C004120BE8D004D005D006D00774022DFDE43EFE1C80D5758296
:20034C0020C007C006C005120BE8D005D006D0078D828E838FF0122296C313FC1C74022D9E
:20036C00FDE43EFEEC60288D828E838FF0122296F582C007C006C005C004120BE8D004D041
:20038C0005D006D00774022DFDE43EFE1C80D575820D020BE8020ADDAF827E00C007C00650
:2003AC00120BFE75823A120BE8850882120BFE75823A120BE8850982120BFE75823A120B07
:2003CC00E8850A82120BFE75820D120BE8D006D007EF24FB50030205F0EF2F2F9003EC73B0
:2003EC000203FB0204600204C502052A02058EE50845B2602AE5096007E50845B2FF8007CD
:20040C00E508F4FD55B2FF8FB2E50A6007E5084580FF8007E508F4FD5580FF8F808028E5CF
:20042C000A6007E5084580FF8007E508F4FD5580FF8F80E5096007E50845B2FF8007E5089A
:20044C00F4FD55B2FF8FB2E508558060027401FFFE0205F0E50845B3602AE5096007E5081A
:20046C0045B3FF8007E508F4FD55B3FF8FB3E50A6007E5084590FF8007E508F4FD5590FF6B
:20048C008F908028E50A6007E5084590FF8007E508F4FD5590FF8F90E5096007E50845B3D0
:2004AC00FF8007E508F4FD55B3FF8FB3E508559060027401FFFE0205F0E50845B4602AE591
:2004CC00096007E50845B4FF8007E508F4FD55B4FF8FB4E50A6007E50845A0FF8007E50870
:2004EC00F4FD55A0FF8FA08028E50A6007E50845A0FF8007E508F4FD55A0FF8FA0E5096037
:20050C0007E50845B4FF8007E508F4FD55B4FF8FB4E50855A060027401FFFE0205F0E50899
:20052C0045B5602AE5096007E50845B5FF8007E508F4FD55B5FF8FB5E50A6007E50845B006
:20054C00FF8007E508F4FD55B0FF8FB08028E50A6007E50845B0FF8007E508F4FD55B0FFA0
:20056C008FB0E5096007E50845B5FF8007E508F4FD55B5FF8FB5E50855B060027401FFFE7D
:20058C008062E50845B6602AE5096007E50845B6FF8007E508F4FD55B6FF8FB6E50A6007B5
:2005AC00E50845B1FF8007E508F4FD55B1FF8FB18028E50A6007E50845B1FF8007E508F45B
:2005CC00FD55B1FF8FB1E5096007E50845B6FF8007E508F4FD55B6FF8FB6E50855B1600288
:2005EC007401FFFE8E8222AF82C007121A65E582D0076004758201228F82C007120B1CE510
:20060C0082D007600475820122BF80028027BF81030206F2BF8203020734BF830302077093
:20062C00BF8503020797BF8603020800BFA20302084A0209E290E6B8E0FFBF402790E6BB6C
:20064C00E0FE7F0090E6BAE07C004207EC420690E6BCE0FDEF4E70088D821202AC0206EE9F
:20066C007582002290E6A0E0FF20E1F890E740744EF090E7417445F090E742744DF090E7BC
:20068C00437449F0900016E0FF90E744F0E58030E2047F0080027F0190E745EFF090E746DA
:2006AC007411F090E7477426F090E74874FFF090E749F090E74A7420F090E74B7415F0908F
:2006CC00E74C7411F090E74D7401F090E74EE4F090E74FF090E68AF00000000090E68B7489
:2006EC0010F07582012290E6B8E0FFBF400280030209E290E68BE4F090E6A0E0FF20E1F893
:20070C0090E740E0FCA3E0FDA3E0FEA3E0FF90E6BCE0F55C90E6BAE0F55D8C828D838EF056
:20072C00EF12100F7582012290E6B8E0FFBF400280030209E290E68BE4F090E6A0E0FF200B
:20074C00E1F890E740E0FCA3E0FDA3E0FEA3E0FF90E6BAE0F55C8C828D838EF0EF120EFA98
:20076C007582012290E6B8E0FFBF400280030209E290E6BAE0FCA3E0FDA3E0FEA3E08C8237
:20078C008D838EF01217647582012290E6B8E0FFBFC00280030209E290E6BAE0FF90E6BBDA
:2007AC00E0FE90E6BCE0FD90E6BDE0FCEF24FB4005EE24F850047582002290E6A0E0FB2056
:2007CC00E1F88EF005F07401800225E0D5F0FBF5088D098C0A8F821203A4AF8290E740EF3B
:2007EC00F090E68AE4F00000000090E68B7401F07582012290E6B8E0FFBF4002800302090D
:20080C00E290E6BCE0FF90E6BDE0FEEF7004758201221FBF0400501590E6BAE0FDEEC454F1
:20082C00F024802DF55C8F82120E81800DEEC454F02480F55C8F82120E817582012290E62E
:20084C00B8E0FFBFC002800302093390E6BBE0FE7F0090E6BAE0FD7C00900001ED4FF0ECF3
:20086C004EA3F090E6BFE0FE7F0090E6BEE0FD7C00900003ED4FF0EC4EA3F0900003E0F578
:20088C00F0A3E045F070030209DE90E6A0E0FF20E1F8900003E0FEA3E0FFC3EE9440EF945F
:2008AC000040047E407F007D008D037C00C3EB9EEC9F5010ED2440F582E434E7F583742315
:2008CC00F00D80E590E6BCE024FF9207900001E0FCA3E0FD8E037524407525E78B238C8248
:2008EC008D83C007C006C005C004C0031217B7D003D004D005D006D00790E68AE4F0000026
:20090C00000090E68BEBF0900001EE2CF0EF3DA3F0900003E0FCA3E0FD900003ECC39EF0D6
:20092C00ED9FA3F002088790E6B8E0FFBF400280030209DE90E6BBE0FE7F0090E6BAE0FDE6
:20094C007C00900005ED4FF0EC4EA3F090E6BFE0FE7F0090E6BEE0FD7C00900007ED4FF09F
:20096C00EC4EA3F0900007E0F5F0A3E045F0606290E68BE4F090E6A0E0FF20E1F890E68B04
:20098C00E0FF7E0090E6BCE024FF9208900005E0FCA3E0FD8F267527407528E78C828D83FB
:2009AC00C007C006C005C004121909D004D005D006D007900005EF2CF0EE3DA3F090000796
:2009CC00E0FCA3E0FD900007ECC39FF0ED9EA3F0809275820122758200220000000090E601
:2009EC0002E4F00000000090E603E4F00000000090E609E4F00000000090E600E0FF74E7C5
:200A0C005F4410F00000000090E60174E3F00000000090E610E4F00000000090E61174A074
:200A2C00F00000000090E61274A2F00000000090E61374E2F00000000090E61474DAF00095
:200A4C0000000090E615E4F00000000090E6187410F00000000090E619740CF0000000002A
:200A6C0090E61A740CF00000000090E61BE4F00000000090E6227402F00000000090E6236E
:200A8C00E4F00000000090E6247404F00000000090E625E4F00000000090E60B7403F0001D
:200AAC0000000090E6047480F00000000090E6047482F00000000090E6047484F00000000A
:200ACC000090E6047486F00000000090E604E4F02290E6A2E0FF20E13690E7C0740AF090D3
:200AEC00E7C17420F090E7C2E4F090E7C3F090E7C4F090E7C5F090E7C6F090E7C77402F05F
:100B0C0090E7C8E4F090E7C9F090E68F740AF02201
:0123B000002C
:200B1C00AF82BF2002800EBF21028059BF2203020BD8020BDCC2E890E6B57401F090E68B71
:200B3C00E4F090E6B5F0D2E890E68BE0FFBF07F8000000007E007F00EE2417FCEF3400FD10
:200B5C00EE2440F582EF34E7F583E0FB8C828D83F00EBE00010FC3EE9407EF6480948040F6
:200B7C00D77582012290E6B57401F07E007F00EE2440FCEF34E7FDEE2417F582EF3400F5CE
:200B9C0083E0FB8C828D83F00EBE00010FC3EE9407EF6480948040D790E68AE4F0000000D3
:200BBC000090E68B7407F00000000090E6A0E0FF20E1F890E6B5E4F075820122758201228C
:040BDC0075820022FC
:0723B10060090000000008B4
:200BE000D2B3E5B575B5FF22E5827909C392B3137820D8FE00D9F6D2B37820D8FE22E582CE
:200C0000FFC4540FFE53060FBE0A0050047D3080027D37ED2EF582C007120BE8D0075307BA
:200C20000FBF0A0050047E3080027E37EE2FF582020BE8AE82E583FFC4540FFC53040F7D7D
:200C400000BC0A0050047D3080027D37ED2CF582C007C006120BE8D006D0078F0553050FCD
:200C60008D04BC0A0050047C3080027C37EC2DF582C007C006120BE8D006D0078E04EFC4D4
:200C8000CCC4540F6CCC540FCC6CCC53040F7D00BC0A0050047D3080027D37ED2CF582C092
:200CA00007C006120BE8D006D007740F5EFFFEBE0A0050047E3080027E37EE2FF582020B35
:200CC000E8AC82AD83AEF0FFC4540FF853000F79007A007B00B80A0050047B3080027B374D
:200CE000EB28F582C007C006C005C004120BE8D004D005D006D0078F0353030F8B02BA0AB1
:200D00000050047A3080027A37EA2BF582C007C006C005C004120BE8D004D005D006D007A5
:200D20008E00EFC4C8C4540F68C8540FC868C853000F79007A007B00B80A0050047B3080E7
:200D4000027B37EB28F582C007C006C005C004120BE8D004D005D006D0078E0353030F8B63
:200D600002BA0A0050047A3080027A37EA2BF582C007C006C005C004120BE8D004D005D05C
:200D800006D0078D00EEC4C8C4540F68C8540FC868C8F9EFC454F049EFC4540F53000F7993
:200DA000007A007B00B80A0050047B3080027B37EB28F582C007C006C005C004120BE8D0D4
:200DC00004D005D006D0078D0353030F8B02BA0A0050047A3080027A37EA2BF582C007C003
:200DE00006C005C004120BE8D004D005D006D0078C00EDC4C8C4540F68C8540FC868C8F959
:200E0000EEC454F0498E02EFC4CAC4540F6ACA540FCA6ACA53000F79007A007B00B80A0038
:200E200050047B3080027B37EB28F582C007C006C005C004120BE8D004D005D006D0077410
:200E40000F5CFFFEBE0A0050047E3080027E37EE2FF582020BE8AD82AE83AFF08D828E8381
:200E60008FF0122296FC60188C820DBD00010EC007C006C005120BE8D005D006D00780DC99
:010E8000224F
:200E8100AF827DFA7E0EEF75F003A4241EF582740035F0F583E0FBA3E0FCA3E0FF8B828CE3
:200EA100838FF0122296F9A3122296FA74022BFBE43CFC900009E9F0EAA3F0900009E0F9EC
:200EC100A3E0FA900009E0F5F0A3E045F06029E92DF582EA3EF583E55CF08B828C838FF0FC
:190EE100122296F9A3122296FAA3AB82AC83900009E9F0EAA3F080C3227B
:2022B700BA000000C700D000D900E200EB00F400FD0006017402A40500002F0036003D0057
:2022D70044004B0052005900600075007C0083008A00910098009F00A600CA00D300DC0068
:2022F700E500EE00F700000109016A0220048B05E2060000160060021604A205F8060000B3
:202317001000250029003100340038003B003F004200460049004D005000540057005B00BD
:202337005E0062006500700077007A007E008100850088008C008F00930096009A009D0079
:20235700A100A400A800AC00B700BC00C000CC00CE00D500D700DE00E000E700E900F000D6
:20237700F200F900FB00020104010B010E018302850229042B04B305B505FA06FC067208E7
:042397007F080000BB
:0F23B800BB2280D122800B2380172380B7228085
:200EFA00AC82AD83AEF0FFAB5C8B021BEA6019C2B3EC13920092B2EFC313FFEE13FEED13BE
:200F1A00FDEC13FCD2B380E1C2B322E5821392B1D2B313C2B392B1D2B313C2B392B1D2B360
:200F3A0013C2B392B1D2B313C2B392B1D2B313C2B392B1D2B313C2B392B1D2B313C2B3923D
:200F5A00B1D2B300C2B322759AE7759B80A882C2B3E59C1392B1D2B313C2B392B1D2B313C6
:200F7A00C2B392B1D2B313C2B392B1D2B313C2B392B1D2B313C2B392B1D2B313C2B392B15F
:200F9A00D2B313C2B392B1D2B3D8C4C2B322759AE7759B80A882C2B3859C80D2B3D8F7C253
:200FBA00B322AF82E582A2B01392B1D2B3C2B3A2B01392B1D2B3C2B3A2B01392B1D2B3C277
:200FDA00B3A2B01392B1D2B3C2B3A2B01392B1D2B3C2B3A2B01392B1D2B3C2B3A2B0139267
:200FFA00B1D2B3C2B3A2B01392B1D2B300C2B3F582228F8222AF82AE83ADF0FC90002DEF17
:20101A00F0EEA3F0EDA3F0ECA3F0900031E55CF0900032E55DF02290002DE0F5F0A3E042F7
:20103A00F0A3E042F0A3E045F0700302121DE5BA20E1FBE5BA20E2FB90002DE0FCA3E0FD45
:20105A00A3E0FEA3E0FFC3ED9402EE9400EF9400400A780079027A007B0080088C008D0154
:20107A008E028F0390E68DE0FF750B80750CE7750DC0750EE790002DE0FBA3E0FCA3E0FDA7
:20109A00A3E0FE880F8910E4F511F512EBB50F0EECB5100AEDB51106EEB512028003021116
:2010BA009AE824FFFDE934FFFE5305F888048D03ECC39BFCEEC423CDC423541F6DCD541FFF
:2010DA00CD6DCDFE8D061DEE603FAB0DAE0E850B82850C83E0FA050BE4B50B02050C8A826D
:2010FA00C007C006C005C004C003120FBCAA82D003D004D005D006D0078B828E83EAF005CE
:20111A000DE4B50DBF050E80BB850B82850C83E0FE050BE4B50B02050C90000CEEF0900020
:20113A000BE4F090000D04F08C0690000DE06040EE603D1E900032E0FD30E005EE7002D2E7
:20115A00B290000CE0FD13920192B1EDC313FD90000CF030B00C90000DE0FD90000BE0FC38
:20117A004DF0D2B3C2B390000DE025E0FDF080BAAD0DAE0E90000BE0FC8D828E83F08051A7
:20119A00E9C423C8C423541F68C8541FC868C8F9880618EE603BAD0DAE0E850B82850C83E4
:2011BA00E0FC050BE4B50B02050C8C82C007C006C005C000120FBCAC82D000D005D006D0FC
:2011DA00078D828E83ECF0050DE4B50DC3050E80BF90E68DE4F090E68FEFF090002DE0FCD1
:2011FA00A3E0FDA3E0FEA3E0FF90002DECC3950FF0ED9510A3F0EE9511A3F0EF9512A3F0DD
:20121A00021031900031E4F02290002DE0F5F0A3E042F0A3E042F0A3E045F070030213632B
:20123A00E5BA20E1FB90002DE0FCA3E0FDA3E0FEA3E0FFC3ED9402EE9400EF9400400A78D0
:20125A000079027A007B0080088C008D018E028F0390E68DE090002DE0FCA3E0FDA3E0FEC3
:20127A00A3E0FF88138914E4F515F516ECB5130EEDB5140AEEB51506EFB51602800302130D
:20129A0030750B80750CE7E824FFFEE934FFFF5306F88E05E8C39DFDEFC423CEC423541F51
:2012BA006ECE541FCE6ECEFF8E071EEF601F850B82850C83E0FF050BE4B50B02050C8F825E
:2012DA00C006C005120F25D005D00680DB850B82850C83E090000EF090000F7401F08D07F1
:2012FA0090000FE06036EF60331F900032E0FE30E005EF7002D2B290000EE0FE13920292CF
:20131A00B1EEC31390000EF0D2B3C2B390000FE025E0FEF080CA758240120F6190E68DE45A
:20133A00F090002DE0FCA3E0FDA3E0FEA3E0FF90002DECC39513F0ED9514A3F0EE9515A31F
:20135A00F0EF9516A3F0021223900031E4F022900032E0FF30E1047FFF80027F00EF13929F
:20137A000390002DE0F5F0A3E042F0A3E042F0A3E045F0700302152EE5BA20E2FB90002D9B
:20139A00E0FBA3E0FCA3E0FDA3E0FEC3EC9402ED9400EE9400400CE4F517751802F519F5C2
:2013BA001A80088B178C188D198E1AAD17AE188D03EEC423CBC423541F6BCB541FCB6BCB1F
:2013DA00FCED540760027401FCC007EC2BFC750DC0750EE790002DE0F8A3E0F9A3E0FAA325
:2013FA00E0FF8D178E18E4F519F51AE8B5170EE9B5180AEAB51906EFB51A028005D007024B
:20141A0014CAD007ED24FFF9EE34FFFA5301F88906EDC39EFEEAC423C9C423541F69C95438
:20143A001FC969C9FA890519ED6033AA0DAD0E8F82C007C006C005C004C002C001120FBC5E
:20145A00A882D001D002D004D005D006D0078A828D83E8F0050DE4B50DCB050E80C79000EE
:20147A0010E4F090001104F0A20392B1900011E0602EEE602B1E900032E0FD30E005EE7039
:20149A0002D2B230B00C900011E0FD900010E0FA4DF0D2B3C2B3900011E025E0FDF080CCD2
:2014BA00AD0DAE0E900010E0FA8D828E83F080378B068E051EED602FAB0DAD0E8F82C00752
:2014DA00C006C005C004C003120FBCAA82D003D004D005D006D0078B828D83EAF0050DE4C1
:2014FA00B50DCF050E80CB90E68FECF090002DE0FBA3E0FCA3E0FDA3E0FE90002DEBC395EA
:20151A0017F0EC9518A3F0ED9519A3F0EE951AA3F002137B900031E4F022900032E0FF3008
:20153A00E1047FFF80027F00C00790002DE0FBA3E0FCA3E0FDA3E0FEEB24FFF8EC34FFF930
:20155A00ED34FFFAEE34FFFF5300F88806900012EBC39EF0881BE9C423C51BC423541F656E
:20157A001BC51B541FC51B651BC51BF51CEAC42354E0451CF51C8A1DEFC423C51DC4235481
:20159A001F651DC51D541FC51D651DC51DF51ED007AB1BAC1CAD1DAE1E151B74FFB51B0C68
:2015BA00151CB51C07151DB51D02151EEB4C4D4E600B8F82C007120F25D00780D4EF1392B5
:2015DA000492B1900012E0FFEF60141F900032E0FE30E005EF7002D2B2D2B3C2B380E9901A
:2015FA000031E4F02290002DE0F5F0A3E042F0A3E042F0A3E045F06051E5BA20E1FB90E644
:20161A008DE0FF30050B8F82C007120FA8D00780098F82C007120F61D00790E68DE4F0906B
:20163A00002DE0FBA3E0FCA3E0FDA3E0FE8F0079007A007F0090002DEBC398F0EC99A3F0FC
:20165A00ED9AA3F0EE9FA3F0809B900031E4F02290002DE0F5F0A3E042F0A3E042F0A3E0F5
:20167A0045F0700302171CE5BA20E2FB90002DE0FCA3E0FDA3E0FEA3E0FFC3EC9440ED94B7
:20169A0000EE9400EF9400400A784079007A007B0080088C008D018E028F03750DC0750E32
:2016BA00E78807EF602DAD0DAE0E758200C007C006C005C000120FBCAC82D000D005D00619
:2016DA00D0078D828E83ECF0050DE4B50D02050E1F80D090E68FE8F090002DE0FCA3E0FDEB
:2016FA00A3E0FEA3E0FF79007A007B0090002DECC398F0ED99A3F0EE9AA3F0EF9BA3F00218
:20171A00166A900031E4F022900031E0FF24F8500122EF240A83F582EF240C83F583E473C1
:20173A00634A4D5053565B601717171717171717021031021223021369021534D2050215F8
:20175A00FFC2050215FF12166A22AA82AB83ACF0FDD2B30000000000000000000000C2B3F2
:17177A000000000000001ABAFFE71BBBFFE31CBCFFDF1DBDFFDB225A
:0623C70000000000000010
:2017910090E678E0FF30E0F8EF30E202D322C32290E678E0FF30E0F8EF30E202D322EF20AA
:2017B100E102D322C322AE82AF833007047DAA80027DA290239B75F080C007C006C005125F
:2017D1000E56D005D006D0073007047C3180027C308C82C007C006C005120BE875822C1262
:2017F1000BE8D005D006D0078E828F83C007C006C005120C3375822C120BE8AB237C008BA1
:20181100828C83120C33758229120BE875820D120BE8D005D006D00790E678E0FC20E6F85D
:2018310090E6787480F090E679EDF0C007C006C0051217A1D005D006D0075002D3228F0481
:2018510090E679ECF0C007C006C0051217A1D005D006D0075002D32290E679EEF0C0051223
:2018710017A1D0055002D32290E6787480F090E679234DF01217915002D32290E679E01280
:2018910017915002D3227F00AD237E001DBDFF011E8F037C00C3EB9DEC64808EF063F08009
:2018B10095F0501FEF2524FDE43525FE90E679E08D828E83F0C007121791D0075002D32234
:2018D1000F80C590E6787420F0C007121791D0075002D322EF2524FFE43525FE90E679E050
:2018F1008F828E83F01217915002D32290E6787440F090E679E0C322AE82AF833008047D63
:20191100AA80027DA29023A575F080C007C006C005120E56D005D006D0073008047C31807B
:20193100027C308C82C007C006C005120BE875822C120BE8D005D006D0078E828F83C007F0
:20195100C006C005120C3375822C120BE8AB267C008B828C83120C33758229120BE875829C
:201971000D120BE8D005D006D00790E678E0FC20E6F890E6787480F090E679EDF0C007C0D5
:2019910006C0051217A1D005D006D0075002D3228F0490E679ECF0C007C006C0051217A15E
:2019B100D005D006D0075002D32290E679EEF0C0051217A1D0055002D322AE27AF287C00AD
:2019D100C3EC9526502A8E828F83E0FBA3AE82AF8390E679EBF0C007C006C005C004121707
:2019F10091D004D005D006D0075002D3220C80D090E678E0FF74404FF090E678E0FF20E6B9
:201A1100F890E6787480F090E679EDF0C005121791D0055002D32290E678E0FF74404FF0C4
:121A310090E678E0FF20E6F890E678E0FF30E1D1C32244
:15239B0070726F6D52656164280070726F6D57726974652800DA
:201A4300020BE0AF82BF0A028003BF0D0C75820A120BE875820D020BE88F82020BE8758243
:021A630030222F
:20021200752901752A00752B01752C01752D2A752E2C752F0A753000753100753200753368
:2002320000753400753500753600753700753800753905753A00753B00753C20753D1C752F
:200252003E00753F0075400475410075420075432A75442C75450A75460075475475485809
:20027200754914754A00754B00754C00754D18754E00754F0075502075511C7552007554A2
:01029200006B
:201A6500AF82BF01028015BF8103021B5BBF8203021B5BBF8303021B5B021B9990E6B8E0E1
:201A8500FFBF210280047582002290E68AE4F090E68B741AF00000000090E6A0E0FF20E17A
:201AA500F890E68BE0FFBF1AF890E742E0FF8F2B90E743E0FF8F2C90E742E0FF1FEF2F25D8
:201AC500E02443F987078F2D90E742E0FF1FEF2F25E0244304F987078F2E90E742E0FF1F37
:201AE500EF2F25E024432402F987078F2F90E742E0FF1FEF2F25E024432403F987078F303E
:201B050090E743E0FF1FEF2F25E0244BF987078F3B90E743E0FF1FEF2F25E0244B04F98757
:201B2500078F3C90E743E0FF1FEF2F25E0244B2402F987078F3D90E743E0FF1FEF2F25E030
:201B4500244B2403F987078F3E90E68AE4F090E68BF07582012290E6B57401F07E007F002A
:201B6500EE2440F582EF34E7F583EE2429F9E7FDF00EBE00010FC3EE941AEF6480948040AB
:201B8500DF90E68AE4F00000000090E68B741AF075820122758200228553822290E6BAE04F
:201BA500F55375820122AD5CAE5DAF5E8D828E838FF0E55412220B7582012290E6BAE0F567
:201BC500547401B554028003021C920000000090E618E4F00000000090E6047480F0000039
:201BE500000090E6047402F00000000090F0007455F090F0017446F090F0027455F090F0E1
:201C05000304F090F00414F07401B52B0890F005744AF0800690F0057452F090F0067455A0
:201C2500F07401B52C0890F0077444F0800690F0077448F090F0087455F090F009744EF0ED
:201C45000000000090E690E4F00000000090E691740AF00000000090E6497482F00000008B
:201C65000090E604E4F00000000090E6187410F00000000090E6047480F00000000090E63B
:111C8500047406F00000000090E604E4F07582012278
:040000000201B9320E
:01000B0032C2
:0100130032BA
:01001B0032B2
:0100230032AA
:01002B0032A2
:03003300021D03A8
:01003B003292
:01004300328A
:01004B003282
:01005300327A
:01005B003272
:01006300326A
:03006B00021D066D
:0300730002220A5C
:03007B00021DF56E
:03008300021DCB90
:03008B00021D2D26
:03009300021D7CCF
:03009B00021DF251
:0300A30002223402
:0300AB00022235F9
:0300B300022236F0
:0300BB00022239E5
:0300C3000222090D
:0300CB00022226E8
:0300D300022227DF
:0300DB00022229D5
:0300E300021DF704
:0300EB000222B23C
:0300F300021DF3F8
:0300FB00021DF4EF
:03010300021DF6E4
:03010B00021DF8DA
:03011300021DF9D1
:03011B0002229528
:0301230002223283
:03012B0002223776
:0301330002223A6B
:03013B0002223C61
:0301430002223362
:03014B0002223855
:0301530002223B4A
:03015B0002223D40
:03016300022294E1
:03016B0002222A43
:0301730002222C39
:03017B0002222E2F
:0301830002223025
:03018B0002222B22
:0301930002222D18
:03019B0002222F0E
:0301A30002223104
:0301AB0002222805
:0301B3000222081D
:04029300C209C20AD0
:0302A9000201B699
:0301B600021C9692
:201C960090E600E0FF74E75F4410F090E100121A431202C4E500D2E890E668E0FF74084FFC
:201CB600F090E65CE0FF74014FF0E0FF74104FF0E0FF74204FF0E0FF74084FF0D2DDD2AF9B
:201CD60090E680E0FF20E11890E680E0FF740A4FF09005DC12223E90E680E0FF74F75FF0FC
:201CF6001203A110090280F8121DFA80F3C2DC32C0E0C082C083C007C0D075D000D209AFCE
:201D16009174EF5FF59190E65D7401F0D0D0D007D083D082D0E032C022C0E0C0F0C082C06A
:201D360083C007C006C005C004C003C002C001C000C0D075D0007582001220EAAF9174EF63
:201D56005FF59190E65D7410F0D0D0D000D001D002D003D004D005D006D007D083D082D090
:201D7600F0D0E0D02232C022C0E0C0F0C082C083C007C006C005C004C003C002C001C000B6
:201D9600C0D075D0007582011220EAAF9174EF5FF59190E65D7420F0D0D0D000D001D00252
:201DB600D003D004D005D006D007D083D082D0F0D0E0D02232C0E0C082C083C007C0D075BA
:1C1DD600D000D20AAF9174EF5FF59190E65D7408F0D0D0D007D083D082D0E03280
:202E000012010002EF020140501DB76002000102000109027E0104010080FA080B00020EB5
:202E200003000109040000000E0100000D240100015000006CDC0201011224020101020067
:202E400000000000000000030000000C24050201000003000000001C240603FFFFFFFFFFF0
:202E6000FFFFFFFFFFFFFFFFFFFFFF00010203000000000924030401010003000904010010
:202E8000000E0200000F240102B9008600040101000100000B240601020101000000001E4E
:202EA00024070102000400030000000E0000000E000018002A2C0A00012A2C0A001E24079F
:202EC00002020005D0020000000E0000000E00201C002A2C0A00012A2C0A0006240D0101C5
:202EE000041B240402025955593200001000800000AA00389B711001000000001E24050177
:202F000002000400030000000E0000000E000018005458140001545814001E2405020200A8
:202F200005D0020000000E0000000E00201C0054581400015458140006240D010104090497
:202F40000101010E02000007058601000401080B0202020001010904020001020201010590
:202F60002400100105240602030524010003042402020705810310000809040300020A00CB
:1B2F800000010705840200020007050202000200F9060002EF0201400100005B
:202F9C00040309040A034A0041004E0049001203480044004D00490032005500530042007F
:022FBC00000013
:011DF20032BE
:011DF30032BD
:011DF40032BC
:011DF50032BB
:011DF60032BA
:011DF70032B9
:011DF80032B8
:011DF90032B7
:0601E800E478FFF6D8FDEB
:1202970075560075570075589A75592F755A12755B2E7B
:201DFA0090E6B9E0FF24F45003021EF6EF240A83F582EF241083F583E4732C42F658F6F606
:201E1A006EF6748BA3D71E1E1E1E1E1E1E1E1E1E1E1E121F70E5826003021F0C90E6A0E0D5
:201E3A00FF74014FF0021F0C121FFDE5826003021F0C90E6A0E0FF74014FF0021F0C12207B
:201E5A0069E5826003021F0C90E6A0E0FF74014FF0021F0C122115021F0C121B9DAF829032
:201E7A00E740EFF090E68AE4F090E68B04F0021F0C90E6BAE0F582121BA1E582707490E636
:201E9A00A0E0FF74014FF0806990E6BCE0FF755C55755D00755E408F82121BABE582700B25
:201EBA0090E6A0E0FF74014FF0804790E740E555F090E68AE4F090E68B04F0803590E6BC07
:201EDA00E0FF90E6BAE0F55C8F82121BC0E582702190E6A0E0FF74014FF0801690E6B9E064
:201EFA00F5821205F3E582700990E6A0E0FF74014FF090E6A0E0FF74804FF022AF828F06AE
:201F1A0053067FEE24F75003021F6CEE240A83F582EE240D83F583E47345495C6C606C64D9
:201F3A006C681F1F1F1F1F1F1F1F1F90E6A022EF30E7067EA27FE680047EA17FE68E828F2C
:201F5A00832290E6A32290E6A42290E6A52290E6A6229000002290E6B8E0FFBF8002801F31
:201F7A00BF81028005BF8273803490E740E4F090E741F090E68AF090E68B7402F08060E5C9
:201F9A005725E0FFE556420790E740EFF090E741E4F090E68AF090E68B7402F0804190E698
:201FBA00BCE0F582121F16AE82AF838E048F05EE4F7003F582228C828D83E0FC30E0047F4F
:201FDA000180027F0090E740EFF090E741E4F090E68AF090E68B7402F0800475820022755A
:201FFA0082012290E6B8E0FF6005BF0255801190E6BAE0FFBF0105755700804F7582002281
:20201A0090E6BAE0703890E6BCE0F582121F16AE82AF83E0FD5305FE8E828F83EDF090E614
:20203A00BCE0FF53070F90E6BCE05480C423541FFE90E6832FF0E0FF74204FF0800D7582F6
:20205A00002290E6B9E0F5820205F37582012290E6B8E0FF6005BF026A801B90E6BAE0FF63
:20207A00BF0202806790E6BAE0FFBF0105755701805A7582002290E6BAE0704390E6BCE033
:20209A00F582121F16AE82AF83EE4F7003F582228E828F83E0FD4305018E828F83EDF090E6
:2020BA00E6BCE0FF53070F90E6BCE05480C423541FFE90E6832FF0E0FF74204FF0800D7512
:2020DA0082002290E6B9E0F5820205F375820122AF82D20B10AF02C20BEF600E755812755B
:2020FA00592E755A9A755B2F800C75589A75592F755A12755B2EA20B92AF2290E6B5740158
:20211A00F090E6BBE0FFBF0102801DBF0202802DBF03028037BF06030221DABF07030221AA
:20213A00EFBF0A01220221FE7E007F2E8F0690E6B3EEF07E007F2E90E6B4EEF022AF5990D5
:20215A00E6B3EFF0AE5890E6B4EEF0227D9C7E2F7F8090E6BAE0F55C7B008B020BEAB55C89
:20217A000280428D008E018F028D828E838FF012229628F8E439F9880589068A0774012DE6
:20219A00F9E43EFA8F0489828A838CF0122296F9B9030280067D007E007F00ED4E6006C304
:2021BA00E55C9B50B5ED4E600D8E0790E6B3EFF090E6B4EDF02290E6A0E0FF74014FF022EB
:2021DA007E907F2F8F0690E6B3EEF07E907F2F90E6B4EEF022AF5B90E6B3EFF0AE5A90E617
:0E21FA00B4EEF02290E6A0E0FF74014FF02258
:2001C600791DE94400601B7A019023B07816759200E493F2A308B800020592D9F4DAF275F5
:0201E60092FF86
:0122080032A3
:0122090032A2
:01220A0032A1
:1B220B0020F71130F6138883A88220F509F6A8837583002280FEF280F5F022D2
:012226003285
:012227003284
:012228003283
:012229003282
:03004300023F0079
:203F0000021D060002220A00021DF500021DCB00021D2D00021D7C00021DF2000222330001
:203F200002223400022235000222360002223900022209000222260002222700022229000A
:203F4000021DF700022233000222B200021DF300021DF400021DF600021DF800021DF900B5
:203F600002229500022233000222330002223300022232000222370002223A0002223C0014
:203F80000222380002223B0002223D000222940002222A0002222C0002222E000222300009
:183FA00002222B0002222D0002222F0002223100022228000222080049
:01222A003281
:01222B003280
:2001EE007800E84400600A7901759200E4F309D8FC7815E84400600C7901900001E4F0A307
:04020E00D8FCD9FA45
:01222C00327F
:01222D00327E
:01222E00327D
:01222F00327C
:01223000327B
:01223100327A
:012232003279
:012233003278
:012234003277
:012235003276
:012236003275
:012237003274
:012238003273
:012239003272
:01223A003271
:01223B003270
:01223C00326F
:01223D00326E
:20223E00AE82AF8390E600E05418C423541FFD70057CB1FD801C90E600E05418C423541FAE
:20225E00FBBB01067A617B0180047AC27B028A048B058C5C8D5D155C74FFB55C02155DE5D1
:16227E005C455D70F1EE24FFFAEF34FFFB8A068B07EA4B70DD22FD
:012294003217
:012295003216
:0D01B90075815E1222B3E58260030201B67B
:1C22960020F71430F6148883A88220F507E6A88375830022E280F7E49322E02257
:0122B20032F9
:0422B300758200220E
:00000001FF
