:100B4E00471000600900000000081A210100010191
:100B5E002A2C0A0000000000000000000500002002
:100B6E001C000004000008432A2C0A0054581400EC
:0A0B7E00083B0000180000201C00D6
:1005A400E4F513F512F511F510C203C200C202C23C
:1005B400017E087F008E4D8F4E7557087558127551
:1005C4004B08754C1C75530975549B755909755A1C
:1005D4009C90E680E030E70E854B4F854C50855368
:1005E40051855452800C85534F855450854B518509
:1005F4004C52EE54E0700302070C7514007515801C
:100604007E087F008E168F17C374BD9FFF74099EEA
:10061400CF2402CF3400FEE48F0F8E0EF50DF50CBF
:10062400F50BF50AF509F508AF0FAE0EAD0DAC0CE0
:10063400AB0BAA0AA909A808C3120CB85026E515E1
:10064400250BF582E514350AF58374CDF0E50B240A
:1006540001F50BE4350AF50AE43509F509E4350832
:10066400F50880C4E4F50BF50AF509F508AF0FAEFB
:100674000EAD0DAC0CAB0BAA0AA909A808C3120C49
:10068400B85033E517250BF582E516350AF583E0F6
:10069400FFE515250BF582E514350AF583EFF0E542
:1006A4000B2401F50BE4350AF50AE43509F509E4F0
:1006B4003508F50880B785144D85154E74002480DF
:1006C400FF740834FFFEC3E5589FF558E5579EF5BF
:1006D40057C3E5509FF550E54F9EF54FC3E5529F34
:1006E400F552E5519EF551C3E54C9FF54CE54B9E03
:1006F400F54BC3E5549FF554E5539EF553C3E55AB2
:100704009FF55AE5599EF559D2E843D82090E668FA
:10071400E04409F090E65CE0443DF0D2AFD204122C
:100724000CEF538EF8C203120393300107120080BA
:10073400C2018003120D4A3003F01207FD50EBC2D0
:1007440003120DA120001690E682E030E704E020B9
:10075400E1EF90E682E030E604E020E0E4120D1ED2
:05076400120BFE80C530
:1000800090E6B9E0120CC9024E00029501035F032D
:1000900001C70602480802420902360A023C0B0167
:1000A0000020015A21038B2200B58100B58200B5E2
:1000B000830000037F90E6B57401F0E4F555F55632
:1000C000AF5674212FF8E6FE74402FF582E434E732
:1000D000F583EEF00556E55670020555641A455550
:1000E00070DEE490E68AF0000000000000000000EE
:1000F0000000000000000090E68B741AF002038BF1
:10010000C2E890E6B57401F0E490E68BF090E6B5B5
:10011000F0D2E890E68BE0B407F9000000000000A0
:1001200000000000000000000000E4F555F556AFA7
:100130005674402FF582E434E7F583E0FE74002F17
:10014000F582E43410F583EEF00556E556700205AD
:10015000556407455570D802038B90E6B57401F0DD
:10016000E4F555F556AF5674002FF582E43410F5DA
:1001700083E0FE74402FF582E434E7F583EEF0056A
:1001800056E556700205556407455570D8E490E66B
:100190008AF00000000000000000000000000000E5
:1001A000000090E68B7407F00000000000000000E3
:1001B000000000000000000090E6A0E020E1F9E46B
:1001C00090E6B5F002038B90E6B57401F0120E468E
:1001D000400302038B90E6BBE024FE6022146033F0
:1001E00024FD601114602224067048E54D90E6B3AA
:1001F000F0E54E8037E55790E6B3F0E558802DE501
:100200004F90E6B3F0E5508023E55190E6B3F0E57A
:1002100052801990E6BAE0FF120D76AA06A9077B74
:1002200001EA494B600DEE90E6B3F0EF90E6B4F0D2
:1002300002038B020384120E3402038B1209BF02E5
:10024000038B1207F502038B120E2202038B120E90
:1002500048400302038B90E6B8E0247F601A1460E4
:100260001F2402702DA200E43325E0FFA202E43334
:100270004F90E740F0E48005E490E740F0A380046D
:10028000E490E741F090E68AF090E68B7402F00289
:10029000038B02038490E6B8E06421600302033913
:1002A00090E68AF090E68B741AF0000000000000DF
:1002B0000000000000000000000090E6A0E020E147
:1002C000F990E68BE0B41AF990E742E0F523A3E059
:1002D000F52490E742E025E025E0243FF8E6F52507
:1002E000E025E025E02440F8E6F526E025E025E0DD
:1002F0002441F8E6F527E025E025E02442F8E6F57C
:1003000028A3E025E025E02437F8E6F533E025E0F2
:1003100025E02438F8E6F534E025E025E02439F836
:10032000E6F535E025E025E0243AF8E6F536E490F8
:10033000E68AF090E68BF08052120E4A504D90E61D
:10034000B8E024FE60112402704190E6BAE0B401E6
:1003500004C2008036802D90E6BAE0602E8025121F
:100360000E4C502790E6B8E024FE60112402701B6A
:1003700090E6BAE0B40104D2008010800780051234
:100380000E4E500790E6A0E04401F090E6A0E04455
:0203900080F0FB
:010392002248
:03003300020BFAC3
:040BFA0053D8EF32AB
:03004300020C00AC
:03005300020C009C
:100C0000020DC600020E0C00020DF600020DDE0001
:100C1000020B8C00020BC3000207FF00020E500003
:100C2000020E5100020E5200020E5300020E54003A
:100C3000020E5500020E5600020E5700020E58001A
:100C4000020E5900020E5000020E5A00020E5B0006
:100C5000020E5C00020E5D00020E5E00020E5F00DE
:100C6000020E6000020E5000020E5000020E5000F4
:100C7000020E6100020E6200020E6300020E6400AA
:100C8000020E6500020E6600020E6700020E68008A
:100C9000020E6900020E6A00020E6B00020E6C006A
:100CA000020E6D00020E6E00020E6F00020E70004A
:080CB000020E7100020E720039
:100D1E0090E682E030E004E020E60B90E682E030E0
:100D2E00E119E030E71590E680E04401F07F147E93
:0C0D3E0000120B0890E680E054FEF0224A
:100CEF0030040990E680E0440AF0800790E680E047
:100CFF004408F07FDC7E05120B0890E65D74FFF070
:0F0D0F0090E65FF05391EF90E680E054F7F0220A
:020D7600A907CB
:100D7800AE59AF5A8F828E83A3E064037017AD011A
:100D880019ED7001228F828E83E07C002FFDEC3EEE
:080D9800FEAF0580DFE4FEFF61
:010DA0002230
:100DA10090E682E044C0F090E681F04387010000C4
:040DB100000000221C
:100B08008E188F1990E600E054187012E519240128
:100B1800FFE43518C313F518EF13F519801590E69F
:100B280000E05418FFBF100BE51925E0F519E5188A
:100B380033F518E5191519AE18700215184E600529
:060B4800120DB580EE2243
:100DB5007400F58690FDA57C05A3E582458370F951
:010DC500220B
:1008000012010002EF0201409AFB9AFB0100020173
:1008100001010A060002EF020140010009027E0107
:10082000040101A0FA080B00020E030001090400F4
:1008300000000E0100000D240100015000006CDCDE
:100840000201011224020101020000000000000068
:1008500000030000000C240502010000030000005A
:10086000001C240603FFFFFFFFFFFFFFFFFFFFFF4A
:10087000FFFFFFFFFF000102030000000009240347
:1008800004010100030009040100000E0200000F32
:10089000240102B9008600040101000100000B24BC
:1008A0000601020101000000001E240701020004ED
:1008B00000030000000E0000000E000018002A2CAB
:1008C0000A00012A2C0A001E240702020005D00299
:1008D0000000000E0000000E00201C002A2C0A0060
:1008E000012A2C0A0006240D0101041B2404020223
:1008F0005955593200001000800000AA00389B7141
:100900001001000000001E24050102000400030085
:1009100000000E0000000E000018005458140001E2
:10092000545814001E240502020005D002000000E5
:100930000E0000000E00201C0054581400015458F2
:10094000140006240D01010409040101010E020036
:100950000007058601000401080B020202000101E4
:10096000090402000102020101052400100105240E
:100970000602030524010003042402020705810383
:1009800010001109040300020A0000010705840297
:10099000000200070502020002000000040309042F
:1009A0001203480044004D00490032005500530036
:0F09B00042000A034A0041004E004900000000C7
:030B8800011A004F
:10039300000000000000000000000000000000005A
:1003A300E490E602F00000000000000000000000FE
:1003B300000000000090E603F000000000000000D1
:1003C30000000000000000000090E609F0000000BB
:1003D3000000000000000000000000000090E600A4
:1003E300E054E74410F000000000000000000000AB
:1003F30000000000000090E60174E3F0000000003C
:10040300000000000000000000000000E490E6107F
:10041300F0000000000000000000000000000000E9
:100423000090E61174A0F00000000000000000003E
:100433000000000000000090E61274A2F00000002B
:100443000000000000000000000000000090E61320
:1004530074E2F00000000000000000000000000053
:1004630000000090E61474DAF000000000000000C1
:10047300000000000000000000E490E615F000001A
:10048300000000000000000000000000000090E6F3
:10049300187410F0000000000000000000000000CD
:1004A3000000000090E619740CF00000000000004A
:1004B3000000000000000000000090E61AF00000B9
:1004C3000000000000000000000000000000E490B5
:1004D300E61BF00000000000000000000000000028
:1004E30000000090E6227402F0000000000000000B
:1004F300000000000000000000E490E623F000008C
:10050300000000000000000000000000000090E672
:10051300247404F00000000000000000000000004C
:1005230000000000E490E625F00000000000000059
:1005330000000000000000000090E60B7403F000D0
:100543000000000000000000000000000000009018
:10055300E6047480F00000000000000000000000CA
:1005630000000000007482F00000000000000000A2
:1005730000000000000000007484F0000000000090
:1005830000000000000000000000007486F000007E
:100593000000000000000000000000000000E4F084
:0105A3002235
:100D4A0090E6A2E020E12490E7C0740AF0A37420A0
:100D5A00F0E4A3F0A3F0A3F0A3F0A3F0A37402F0CD
:0C0D6A00E4A3F0A3F090E68F740AF022DE
:0207FD00D32205
:020BFE00D32200
:020E4600D322B5
:0807F50090E6BAE0F51BD322E7
:100E220090E740E51BF0E490E68AF090E68B04F050
:020E3200D322C9
:1009BF0090E6BAE0F51A64016003020B060000002E
:1009CF000000000000000000000000000090E6188A
:1009DF00F000000000000000000000000000000018
:1009EF000090E6047480F00000000000000000009A
:1009FF00000000000000007402F000000000000082
:100A0F000000000000000000000090F0007455F09E
:100A1F00A37446F0A37455F0A304F0A314F0E523D8
:100A2F00B40106A3744AF0800690F0057452F0905A
:100A3F00F0067455F0E524B40106A37444F0800663
:100A4F0090F0077448F090F0087455F0A3744EF0CE
:100A5F000000000000000000000000000000000087
:100A6F00E490E690F000000000000000000000009D
:100A7F00000000000090E691740AF00000000000F2
:100A8F00000000000000000000000090E6497482A2
:100A9F00F000000000000000000000000000000057
:100AAF0000E490E604F000000000000000000000E9
:100ABF0000000000000090E6187410F00000000025
:100ACF0000000000000000000000000090E6047429
:100ADF0080F0000000000000000000000000000097
:100AEF0000007406F000000000000000000000008D
:090AFF000000000000E4F0D32225
:100E340090E740E51AF0E490E68AF090E68B04F03F
:020E4400D322B7
:020E4800D322B3
:020E4A00D322B1
:020E4C00D322AF
:020E4E00D322AD
:100DC600C0E0C083C082D2015391EF90E65D74010A
:080DD600F0D082D083D0E0329E
:100DF600C0E0C083C0825391EF90E65D7404F0D0EA
:060E060082D083D0E0322F
:100E0C00C0E0C083C0825391EF90E65D7402F0D0D5
:060E1C0082D083D0E03219
:100B8C00C0E0C083C08290E680E030E70E854B4F1A
:100B9C00854C50855351855452800C85534F855448
:100BAC0050854B51854C525391EF90E65D7410F08B
:070BBC00D082D083D0E032AB
:100DDE00C0E0C083C082D2035391EF90E65D7408E9
:080DEE00F0D082D083D0E03286
:100BC300C0E0C083C08290E680E030E70E854B4FE3
:100BD300854C50855351855452800C85534F855411
:100BE30050854B51854C525391EF90E65D7420F044
:070BF300D082D083D0E03274
:0107FF0032C7
:010E5000326F
:010E5100326E
:010E5200326D
:010E5300326C
:010E5400326B
:010E5500326A
:010E56003269
:010E57003268
:010E58003267
:010E59003266
:010E5A003265
:010E5B003264
:010E5C003263
:010E5D003262
:010E5E003261
:010E5F003260
:010E6000325F
:010E6100325E
:010E6200325D
:010E6300325C
:010E6400325B
:010E6500325A
:010E66003259
:010E67003258
:010E68003257
:010E69003256
:010E6A003255
:010E6B003254
:010E6C003253
:010E6D003252
:010E6E003251
:010E6F003250
:010E7000324F
:010E7100324E
:010E7200324D
:030000000207698B
:0C076900787FE4F6D8FD75815A0207B0D5
:100CB800EB9FF5F0EA9E42F0E99D42F0E89C45F092
:010CC8002209
:100CC900D083D082F8E4937012740193700DA3A3BA
:100CD90093F8740193C0E0E8C0E02274029368605D
:060CE900EFA3A3A380DFCE
:100775000205A4E493A3F8E493A34003F68001F2F1
:1007850008DFF48029E493A3F85407240CC8C33385
:10079500C4540F4420C8834004F456800146F6DF54
:1007A500E4800B0102040810204080900B4EE47E8B
:1007B500019360BCA3FF543F30E509541FFEE49349
:1007C500A360010ECF54C025E060A840B8E493A310
:1007D500FAE493A3F8E493A3C8C582C8CAC583CA3B
:1007E500F0A3C8C582C8CAC583CADFE9DEE780BEF3
:010B8B000069
:00000001FF
