:2002C20090E680E0FF740A4FF09005DC12175090E680E0FF74F75FF090E6827445F0F090F0
:2002E200E670E4F090E67AE0FF74014FF01203CA120DD11206297D9C7E2F7F808D828E835A
:200302008FF01217A82DFDE43EFE8D828E838FF01217A8C313FC1C74022DFDE43EFEEC60D7
:20032200288D828E838FF01217A8F582C007C006C005C004120631D004D005D006D0077483
:20034200022DFDE43EFE1C80D5758220C007C006C005120631D005D006D0078D828E838FFB
:20036200F01217A8C313FC1C74022DFDE43EFEEC60288D828E838FF01217A8F582C007C02A
:2003820006C005C004120631D004D005D006D00774022DFDE43EFE1C80D575820D020631BF
:2003A2001204970204D6AF82C0071208ECE582D0076004758201228F821204FFE582600407
:2003C20075820122758200220000000090E602E4F00000000090E603E4F00000000090E6D9
:2003E20009E4F00000000090E600E0FF74E75F4410F00000000090E60174E3F0000000000D
:2004020090E610E4F00000000090E61174A0F00000000090E61474DAF00000000090E615A2
:20042200E4F00000000090E618E4F00000000090E619E4F00000000090E61A740CF0000021
:20044200000090E61BE4F00000000090E6247404F00000000090E625E4F00000000090E64E
:200462000BE4F00000000090E6047480F00000000090E6047482F00000000090E60474846B
:20048200F00000000090E6047486F00000000090E604E4F02290E6A2E0FF20E13690E7C031
:2004A200740AF090E7C17420F090E7C2E4F090E7C3F090E7C4F090E7C5F090E7C6F090E7DE
:1404C200C77402F090E7C8E4F090E7C9F090E68F740AF02221
:16021200E4F508F509750A60750B09F50CF50DF50EF50F751008F8
:2004D600E5AA20E02390E690E0FE7F0090E691E07C004FF578EC4EF57990F00075F0001233
:2004F6000DA090E6917480F022AF82BF2002800FBF21030205C2BF2203020621020625C2E3
:20051600E890E6B57401F090E68BE4F090E6B5F0D2E890E68BE0FFBF07F8000000007E0087
:200536007F00EE240AFBEF3400FC7D40EE2440F582EF34E7F583E0FA8B828C838DF012164D
:20055600380EBE00010FC3EE9407EF6480948040D190000D75F0401217A8FE7F0090000C01
:2005760075F0401217A87C004207EC42068E048F057E007F0090000B75F0401217A8FA7B4D
:2005960000A80A7900E84203E942028B008A01E4FAFBE84207E94206EA4205EB42048F82FC
:2005B6008E838DF0EC120D687582012290E6B57401F07E007F00EE2440FCEF34E7FDEE2416
:2005D6000AF9EF3400FA7B4089828A838BF01217A8F98C828D83F00EBE00010FC3EE940797
:2005F600EF6480948040CF90E68AE4F00000000090E68B7407F00000000090E6A0E0FF209A
:13061600E1F890E6B5E4F0758201227582012275820022AC
:20062900D2B3E5B575B5FF22E5827909C392B3137820D8FE00D9F6D2B37820D8FE22E5828A
:20064900FFC4540FFE53060FBE0A0050047D3080027D37ED2EF582C007120631D007530733
:200669000FBF0A0050047E3080027E37EE2FF582020631AE82E583FFC4540FFC53040F7DF6
:2006890000BC0A0050047D3080027D37ED2CF582C007C006120631D006D0078F0553050F46
:2006A9008D04BC0A0050047C3080027C37EC2DF582C007C006120631D006D0078E04EFC44D
:2006C900CCC4540F6CCC540FCC6CCC53040F7D00BC0A0050047D3080027D37ED2CF582C04F
:2006E90007C006120631D006D007740F5EFFFEBE0A0050047E3080027E37EE2FF5820206B3
:2007090031AC82AD83AEF0FFC4540FF853000F79007A007B00B80A0050047B3080027B37C0
:20072900EB28F582C007C006C005C004120631D004D005D006D0078F0353030F8B02BA0A29
:200749000050047A3080027A37EA2BF582C007C006C005C004120631D004D005D006D0071E
:200769008E00EFC4C8C4540F68C8540FC868C853000F79007A007B00B80A0050047B3080A4
:20078900027B37EB28F582C007C006C005C004120631D004D005D006D0078E0353030F8BDC
:2007A90002BA0A0050047A3080027A37EA2BF582C007C006C005C004120631D004D005D0D5
:2007C90006D0078D00EEC4C8C4540F68C8540FC868C8F9EFC454F049EFC4540F53000F7950
:2007E900007A007B00B80A0050047B3080027B37EB28F582C007C006C005C004120631D04D
:2008090004D005D006D0078D0353030F8B02BA0A0050047A3080027A37EA2BF582C007C0BF
:2008290006C005C004120631D004D005D006D0078C00EDC4C8C4540F68C8540FC868C8F9D1
:20084900EEC454F0498E02EFC4CAC4540F6ACA540FCA6ACA53000F79007A007B00B80A00F5
:2008690050047B3080027B37EB28F582C007C006C005C004120631D004D005D006D0077489
:200889000F5CFFFEBE0A0050047E3080027E37EE2FF582020631AD82AE83AFF08D828E83FA
:2008A9008FF01217A8FC60188C820DBD00010EC007C006C005120631D005D006D00780DC0B
:0108C900220C
:2008CA00020629AF82BF0A028003BF0D0C75820A12063175820D0206318F820206317582BE
:0208EA003022BA
:2002280075220175230075240175250175262A75272C75280A752900752A00752B00752C9F
:2002480000752D00752E00752F0075300075310075320575330075340075352075361C755F
:200268003700753800753904753A00753B00753C2A753D2C753E0A753F0075405475415840
:20028800754214754300754400754500754618754700754800754920754A1C754B00754DD9
:0102A8000055
:2008EC00AF82BF01028015BF81030209E2BF82030209E2BF83030209E2020A2090E6B8E097
:20090C00FFBF210280047582002290E68AE4F090E68B741AF00000000090E6A0E0FF20E104
:20092C00F890E68BE0FFBF1AF890E742E0FF8F2490E743E0FF8F2590E742E0FF1FEF2F2570
:20094C00E0243CF987078F2690E742E0FF1FEF2F25E0243C04F987078F2790E742E0FF1FDD
:20096C00EF2F25E0243C2402F987078F2890E742E0FF1FEF2F25E0243C2403F987078F29E4
:20098C0090E743E0FF1FEF2F25E02444F987078F3490E743E0FF1FEF2F25E0244404F987F7
:2009AC00078F3590E743E0FF1FEF2F25E024442402F987078F3690E743E0FF1FEF2F25E0D0
:2009CC0024442403F987078F3790E68AE4F090E68BF07582012290E6B57401F07E007F00C3
:2009EC00EE2440F582EF34E7F583EE2422F9E7FDF00EBE00010FC3EE941AEF64809480403D
:200A0C00DF90E68AE4F00000000090E68B741AF07582012275820022854C822290E6BAE0E0
:200A2C00F54C75820122AD78AE79AF7A8D828E838FF0E54D12163875820122AF8290E6BA2E
:200A4C00E0F54DEF7067E578706390E6837402F0E0FF74204FF07494F0E0FF74204FF09027
:200A6C00E6047480F00000000090E6047482F00000000090E604E4F00000000090E6917473
:200A8C0080F00000000090E6917480F00000000090E6047480F00000000090E6047484F02F
:200AAC000000000090E604E4F0000000007401B54D1D0000000090E6047480F000000000EA
:170ACC0090E6047406F00000000090E604E4F07582012275820022AE
:040000000201B9320E
:01000B0032C2
:0100130032BA
:01001B0032B2
:03002300020C3F8D
:01002B0032A2
:03003300020B506D
:01003B003292
:01004300328A
:01004B003282
:01005300327A
:01005B003272
:01006300326A
:03006B00020B5332
:030073000216373B
:03007B0002120866
:03008300020C1854
:03008B00020B7AEB
:03009300020BC994
:03009B00020E1042
:0300A300021661E1
:0300AB00021662D8
:0300B300021663CF
:0300BB00021666C4
:0300C300021636EC
:0300CB00021653C7
:0300D300021654BE
:0300DB00021656B4
:0300E30002120AFC
:0300EB00021832C6
:0300F300020E11E9
:0300FB00020E12E0
:03010300021209DC
:03010B0002120BD2
:0301130002120CC9
:03011B000217A721
:0301230002165F62
:03012B0002166455
:030133000216674A
:03013B0002174E5A
:0301430002166041
:03014B0002166534
:0301530002166829
:03015B0002174F39
:030163000217A6DA
:03016B0002165722
:0301730002165918
:03017B0002165B0E
:0301830002165D04
:03018B0002165801
:0301930002165AF7
:03019B0002165CED
:0301A30002165EE3
:0301AB00021655E4
:0301B300021635FC
:0402A900C200C201CC
:0302BF000201B683
:0301B600020AE357
:200AE30090E600E0FF74E75F4410F090E1001208CA1202C2E500D2E890E668E0FF74084F4E
:200B0300F090E65CE0FF74014FF0E0FF74104FF0E0FF74204FF0E0FF74084FF0D2DDD2AF5F
:200B230090E680E0FF20E11890E680E0FF740A4FF09005DC12175090E680E0FF74F75FF0B9
:200B43001203A210000280F812120D80F3C2DC32C0E0C082C083C007C0D075D000D200AF9B
:200B63009174EF5FF59190E65D7401F0D0D0D007D083D082D0E032C021C0E0C0F0C082C030
:200B830083C007C006C005C004C003C002C001C000C0D075D00075820012151BAF9174EF02
:200BA3005FF59190E65D7410F0D0D0D000D001D002D003D004D005D006D007D083D082D055
:200BC300F0D0E0D02132C021C0E0C0F0C082C083C007C006C005C004C003C002C001C0007D
:200BE300C0D075D00075820112151BAF9174EF5FF59190E65D7420F0D0D0D000D001D002F1
:200C0300D003D004D005D006D007D083D082D0F0D0E0D02132C0E0C082C083C007C0D0757F
:200C2300D000D201AF9174EF5FF59190E65D7408F0D0D0D007D083D082D0E032C0E0C08267
:200C4300C083C007C006C0D075D000D310AF01C3C0D0109802803DE5AA20E319AE08AF0986
:200C630074012508F508E43509F5098E8274F42FF583E599F0AF0990E694EFF00000000084
:200C8300AE08E5097F0090E695EEF000000000E4F508F5091099028000D0D092AFD0D0D0EA
:0A0CA30006D007D083D082D0E032E3
:200CAD00E582FF24F0500475823F22EF24F650088F0674572EF5822274302FF58222E582A6
:200CCD0075F004A4FFAEF024FEFCEE342FFDE511C4540FF582C007C006C005C004120CAD7C
:200CED00AB82D004D005D006D0078C828D83EBF074022FFFE43EFEEF24FEFFEE342FFE74D4
:200D0D000F5511F582C007C006120CADAD82D006D0078F828E83EDF022751200902FFE74CD
:200D2D0066F07F008F057E0074F82DF56FE43EF5707573128E747575407571018E72758237
:1B0D4D0051C0071211A3D0078512118F82C007120CCBD0070FBF080040CA2294
:200D6800AC82AD83AEF0FFC3E49C74C29D74019EE49F400EEC9460ED9409EE9400EF940007
:200D880050087C007DC27E017F008C828D838EF0EF12166975820122AD82AE83AFF07B008A
:200DA8007C00C3EB9578EC9579501DEB2DF8EC3EF98F02888289838AF01217A8F599209921
:200DC800FD0BBB00DD0C80DA22902580E4F5F0120D680000000090E61274A2F000000000D0
:200DE80090E61374E2F090E6917480F00000000090E6917480F000000000E4F508F509D295
:080E0800ACC2BCD299C29822D1
:202E000012010002EF020140501DB76002000102030109027E0104010080FA080B00020EB2
:202E200003000109040000000E0100000D240100015000006CDC0201011224020101020067
:202E400000000000000000030000000C24050201000003000000001C240603FFFFFFFFFFF0
:202E6000FFFFFFFFFFFFFFFFFFFFFF00010203000000000924030401010003000904010010
:202E8000000E0200000F240102B9008600040101000100000B240601020101000000001E4E
:202EA00024070102000400030000000E0000000E000018002A2C0A00012A2C0A001E24079F
:202EC00002020005D0020000000E0000000E00201C002A2C0A00012A2C0A0006240D0101C5
:202EE000041B240402025955593200001000800000AA00389B711001000000001E24050177
:202F000002000400030000000E0000000E000018005458140001545814001E2405020200A8
:202F200005D0020000000E0000000E00201C0054581400015458140006240D010104090497
:202F40000101010E02000007058601000401080B0202020001010904020001020201010590
:202F60002400100105240602030524010003042402020705810310004009040300020A0093
:1B2F800000010705020200020007058402000200F9060002EF0201400100005B
:202F9C00040309041A03540069006D0056006900640065006F0073002E00750073004203F5
:202FBC00480044004D00490032005500530042002E007400760020002D0020004E0075006F
:202FDC006D00610074006F0020004F007000730069007300200042006F00610072006400EE
:202FFC00220330003100320033003400350036003700380039006100620063006400650094
:04301C00660000004A
:010E100032AF
:010E110032AE
:010E120032AD
:200E1300AF82E553254EF558E554354FF559755A02900001E4F0EF2FFF900001E0E0600483
:200E33007582002290E678E0FB74804BF0E0FB30E20C90000AC007121750D00780DB90E613
:200E530079EFF090E678E0FB20E007900001E0E060F1900001E0E060047582002290E678F9
:200E7300E0FB20E2B490E678E0FB20E13B90E678E0FB74404BF090E678E0FB30E60790009B
:200E930001E0E060F1900001E0E0600475820022E55A14FB8B5A7003F5822290000AC007BF
:200EB300121750D007020E2C7A007B00C3EA9558EB95594003020F5DC3EA954EEB954F50CB
:200ED30016EA2550F8EB3551F9AC52888289838CF01217A8FC801DEAC3954EF8EB954FF9DE
:200EF300E82555F8E93556F9AE57888289838EF01217A8FC90E679ECF00ABA00010B90E6A1
:200F130078E0FE20E007900001E0E060F1900001E0E060047582002290E678E0FE30E20310
:200F3300020E2C90E678E0FE30E103020EBF90E678E0FF74404FF090E678E0FF30E6079079
:200F53000001E0E060F17582002290E678E0FF74404FF090E678E0FF30E607900001E0E058
:200F730060F1900001E0E060047582002275820122AF82900001E4F0EF2FFF4307017401B2
:200F9300B55B08E4B55C0474018001E4FE900001E0E06004758200227C007D0090E678E0C0
:200FB300FB74804BF0E0FB30E21090000AC007C006121750D006D00780D390E679EFF090F9
:200FD300E678E0FB20E007900001E0E060F1900001E0E060047582002290E678E0FB20E283
:200FF300AC90E678E0FB20E11C90E678E0FB74404BF090E678E0FB30E607900001E0E060FD
:20101300F175820022EE600990E678E0FB74204BF090E679E0E4F560F56174012560F8E490
:201033003561F9C3E8955BE9955C506A90E678E0F920E007900001E0E060F1900001E0E01E
:2010530060047582002290E678E0F930E203020FA074022560F8E43561F9E8B55B0DE9B56A
:201073005C0990E678E0F9742049F0A860A9610560E4B560020561AC60AD61E8255DF8E927
:20109300355EF9AB5F90E679E0FA888289838BF012163802102D90E678E0FB20E00790004E
:2010B30001E0E060F1900001E0E060047582002290E678E0FB30E203020FA090E678E0FFE1
:2010D30074404FF0EC255DFCED355EFDAF5F90E679E0FE8C828D838FF012163890E678E07D
:2010F300FF30E607900001E0E060F1900001E0E060047582002275820122858269E4F56D81
:20111300F56EAB62AC63C3E56D9564E56E9565400302119F7A0090E678E0FF30E4067A0111
:201133008C078F6A8A070AEF246AF98B06A7068A070AEF246AF9AE6DAF6E056DE4B56D02FE
:20115300056EEE2566FEEF3567FFAD688E828F838DF01217A8F78A4E754F0075506A7551FB
:2011730000755240E4F553F554F555F556F557856982C004C003120E13E582D003D0047057
:2011930003F582220BBB00010C02111975820122AF827E0090E678E0FD30E4067E01AD7057
:2011B3008D768E050EED2476F9AC6FA7048E4E754F00755076755100755240E4F553F55415
:2011D300F555F556F5578F82C007120E13E582D0077003F5822285715B85725C85735D8548
:1511F300745E85755F8F82120F84E5827003F582227582012279
:0112080032B3
:0112090032B2
:01120A0032B1
:01120B0032B0
:01120C0032AF
:0601E800E478FFF6D8FDEB
:1202AD0075140075150075169A75172F75181275192EF1
:20120D0090E6B9E0FF24F45003021313EF240A83F582EF241083F583E4733F55136B13135C
:20122D00811391A8C0F412121312131312131212121212138DE582600302132990E6A0E094
:20124D00FF74014FF002132912141AE582600302132990E6A0E0FF74014FF002132912143B
:20126D0090E582600302132990E6A0E0FF74014FF0021329120ADFE58260030213291215B8
:20128D0046021329120A24AF8290E740EFF090E68AE4F090E68B04F002132990E6BAE0F5AA
:2012AD0082120A28E582707490E6A0E0FF74014FF0806990E6BCE0FF757813757900757A90
:2012CD00408F82120A32E582700B90E6A0E0FF74014FF0804790E740E513F090E68AE4F09D
:2012ED0090E68B04F0803590E6BCE0FF90E6BAE0F5788F82120A47E582702190E6A0E0FF48
:20130D0074014FF0801690E6B9E0F5821203A8E582700990E6A0E0FF74014FF090E6A0E0B4
:20132D00FF74804FF022AF828F0653067FEE24F75003021389EE240A83F582EE240D83F507
:20134D0083E473626679897D8981898513131313131313131390E6A022EF30E7067EA27FB9
:20136D00E680047EA17FE68E828F832290E6A32290E6A42290E6A52290E6A622900000228A
:20138D0090E6B8E0FFBF8002801FBF81028005BF8273803490E740E4F090E741F090E68AF1
:2013AD00F090E68B7402F08060E51525E0FFE514420790E740EFF090E741E4F090E68AF097
:2013CD0090E68B7402F0804190E6BCE0F582121333AE82AF838E048F05EE4F7003F5822226
:2013ED008C828D83E0FC30E0047F0180027F0090E740EFF090E741E4F090E68AF090E68B3E
:20140D007402F08004758200227582012290E6B8E0FF6005BF025F801B90E6BAE0FFBF01A6
:20142D0005751500805990E6BAE0FFBF0602804F7582002290E6BAE0703890E6BCE0F58238
:20144D00121333AE82AF83E0FD5305FE8E828F83EDF090E6BCE0FF53070F90E6BCE0548033
:20146D00C423541FFE90E6832FF0E0FF74204FF0800D7582002290E6B9E0F5820203A875EF
:20148D0082012290E6B8E0FF6005BF0274802590E6BAE0FFBF0202807190E6BAE0FFBF01BC
:2014AD0005751501806490E6BAE0FFBF0602805A7582002290E6BAE0704390E6BCE0F58296
:2014CD00121333AE82AF83EE4F7003F582228E828F83E0FD4305018E828F83EDF090E6BC83
:2014ED00E0FF53070F90E6BCE05480C423541FFE90E6832FF0E0FF74204FF0800D7582000B
:20150D002290E6B9E0F5820203A875820122AF82D20210AF02C202EF600E75161275172E11
:20152D0075189A75192F800C75169A75172F75181275192EA20292AF2290E6B57401F090CC
:20154D00E6BBE0FFBF01028019BF02028029BF03028033BF0603021607BF070302161C02DA
:20156D00162B7E007F2E8F0690E6B3EEF07E007F2E90E6B4EEF022AF1790E6B3EFF0AE166F
:20158D0090E6B4EEF0227D9C7E2F7F8090E6BAE0F5787B008B020BEAB5780280428D008EC9
:2015AD00018F028D828E838FF01217A828F8E439F9880589068A0774012DF9E43EFA8F04EF
:2015CD0089828A838CF01217A8F9B9030280067D007E007F00ED4E6006C3E5789B50B5ED94
:2015ED004E600D8E0790E6B3EFF090E6B4EDF02290E6A0E0FF74014FF0227E907F2F8F0641
:20160D0090E6B3EEF07E907F2F90E6B4EEF022AF1990E6B3EFF0AE1890E6B4EEF02290E69A
:08162D00A0E0FF74014FF02260
:2001C6007900E94400601B7A0090189C7802759200E493F2A308B800020592D9F4DAF27546
:0201E60092FF86
:011635003282
:011636003281
:011637003280
:1B16380020F71130F6138883A88220F509F6A8837583002280FEF280F5F022B1
:011653003264
:011654003263
:011655003262
:011656003261
:03004300023D007B
:203D0000020B53000216370002120800020C1800020B7A00020BC900020E100002166000BD
:203D2000021661000216620002166300021666000216360002165300021654000216560004
:203D400002120A000216600002183200020E1100020E12000212090002120B0002120C00E2
:203D60000217A70002166000021660000216600002165F00021664000216670002174E0042
:203D8000021665000216680002174F000217A600021657000216590002165B0002165D0037
:183DA0000216580002165A0002165C0002165E00021655000216350085
:011657003260
:01165800325F
:2001EE007800E84400600A7901759200E4F309D8FC7801E84400600C7901900001E4F0A31B
:04020E00D8FCD9FA45
:01165900325E
:01165A00325D
:01165B00325C
:01165C00325B
:01165D00325A
:01165E003259
:01165F003258
:011660003257
:011661003256
:011662003255
:011663003254
:011664003253
:011665003252
:011666003251
:011667003250
:01166800324F
:20166900D310AF01C3C0D085821A85831B85F01CF51D90E600E05418C423541FFB70047B8E
:2016890001801690E600E05418C423541FFABA01047A0280027A048A03D2CDD2CC8B787517
:2016A9007900757A00757B009071B075F00BE4C0031217C4851A78851B79851C7A851D7BAC
:2016C900121833A882A983AAF0FFD00308B8000909B900050ABA00010FEFC313EA13FAE9D9
:2016E90013F9E813F874FFC398F874FF99FF8FCB7900EB60027401FFEF28F5CAD2CAC29FAA
:20170900D29EC29DD29C438780D299D0D092AF223098FD859982C29822AF8210990280FB93
:201729008F9922AF82BF0A0A75820DC007121722D0078F82C007121722D007BF0D067582A2
:051749000A0217222234
:01174E003268
:01174F003267
:20175000AE82AF8390E600E05418C423541FFD70057CB1FD801C90E600E05418C423541FA7
:20177000FBBB01067A617B0180047AC27B028A048B058C788D79157874FFB578021579E53E
:1617900078457970F1EE24FFFAEF34FFFB8A068B07EA4B70DD22BE
:0117A6003210
:0117A700320F
:0D01B90075817B121898E58260030201B683
:1C17A80020F71430F6148883A88220F507E6A88375830022E280F7E49322E02250
:2017C400AAF0FBE5828578F0A4FCADF0E5838578F0A42DFDE435F0FEE5828579F0A42DFD92
:2017E400E5F03EFEE433FFEA8578F0A42EFEE5F03FFFE5838579F0A42EFEE5F03FFFE58264
:20180400857AF0A42EFEE5F03FFFEB8578F0A42FFFEA8579F0A42FFFE583857AF0A42FFF75
:0E182400E582857BF0A42F8EF08D838C8222CE
:011832003283
:20183300FB7A20E4FCFDFEFFE5822582F582E58333F583E5F033F5F0EB33FB4017DAE980EE
:2018530042E5822582F582E58333F583E5F033F5F0EB33FBEC33FCED33FDEE33FEEF33FF1D
:20187300EC9578ED9579EE957AEF957B4013EC9578FCED9579FDEE957AFEEF957BFF438267
:0518930001DABEEB22AA
:041898007582002233
:00000001FF
