:2002AC00AF8290E6C2E4F0BF010790E60174E3F02290E60174E0F02290E680E0FF740A4FCF
:2002CC00F09005DC12223D90E680E0FF74F75FF090E6827445F0F090E670E4F090E67AE096
:2002EC00FF74014FF01209E5120BDF7D9C7E2F7F808D828E838FF01222952DFDE43EFE8D3F
:20030C00828E838FF0122295C313FC1C74022DFDE43EFEEC60288D828E838FF0122295F577
:20032C0082C007C006C005C004120BE7D004D005D006D00774022DFDE43EFE1C80D5758297
:20034C0020C007C006C005120BE7D005D006D0078D828E838FF0122295C313FC1C74022DA0
:20036C00FDE43EFEEC60288D828E838FF0122295F582C007C006C005C004120BE7D004D043
:20038C0005D006D00774022DFDE43EFE1C80D575820D020BE7020ADCAF827E00C007C00652
:2003AC00120BFD75823A120BE7850882120BFD75823A120BE7850982120BFD75823A120B0C
:2003CC00E7850A82120BFD75820D120BE7D006D007EF24FB50030205F0EF2F2F9003EC73B3
:2003EC000203FB0204600204C502052A02058EE50845B2602AE5096007E50845B2FF8007CD
:20040C00E508F4FD55B2FF8FB2E50A6007E5084580FF8007E508F4FD5580FF8F808028E5CF
:20042C000A6007E5084580FF8007E508F4FD5580FF8F80E5096007E50845B2FF8007E5089A
:20044C00F4FD55B2FF8FB2E508558060027401FFFE0205F0E50845B3602AE5096007E5081A
:20046C0045B3FF8007E508F4FD55B3FF8FB3E50A6007E5084590FF8007E508F4FD5590FF6B
:20048C008F908028E50A6007E5084590FF8007E508F4FD5590FF8F90E5096007E50845B3D0
:2004AC00FF8007E508F4FD55B3FF8FB3E508559060027401FFFE0205F0E50845B4602AE591
:2004CC00096007E50845B4FF8007E508F4FD55B4FF8FB4E50A6007E50845A0FF8007E50870
:2004EC00F4FD55A0FF8FA08028E50A6007E50845A0FF8007E508F4FD55A0FF8FA0E5096037
:20050C0007E50845B4FF8007E508F4FD55B4FF8FB4E50855A060027401FFFE0205F0E50899
:20052C0045B5602AE5096007E50845B5FF8007E508F4FD55B5FF8FB5E50A6007E50845B006
:20054C00FF8007E508F4FD55B0FF8FB08028E50A6007E50845B0FF8007E508F4FD55B0FFA0
:20056C008FB0E5096007E50845B5FF8007E508F4FD55B5FF8FB5E50855B060027401FFFE7D
:20058C008062E50845B6602AE5096007E50845B6FF8007E508F4FD55B6FF8FB6E50A6007B5
:2005AC00E50845B1FF8007E508F4FD55B1FF8FB18028E50A6007E50845B1FF8007E508F45B
:2005CC00FD55B1FF8FB1E5096007E50845B6FF8007E508F4FD55B6FF8FB6E50855B1600288
:2005EC007401FFFE8E8222AF82C007121A64E582D0076004758201228F82C007120B1BE512
:20060C0082D007600475820122BF80028027BF81030206F1BF8203020733BF830302076F96
:20062C00BF8503020796BF86030207FFBFA2030208490209E190E6B8E0FFBF402790E6BB71
:20064C00E0FE7F0090E6BAE07C004207EC420690E6BCE0FDEF4E70088D821202AC0206EDA0
:20066C007582002290E6A0E0FF20E1F890E740744EF090E7417445F090E742744DF090E7BC
:20068C00437449F0900016E0FF90E744F0E58030E2047F0080027F0190E745EFF090E746DA
:2006AC007411F090E7477426F090E74874FFF090E749F090E74A7420F090E74B7415F0908F
:2006CC00E74C7410F090E74D04F090E74EE4F090E74FF090E68AF00000000090E68B7410EB
:2006EC00F07582012290E6B8E0FFBF400280030209E190E68BE4F090E6A0E0FF20E1F89014
:20070C00E740E0FCA3E0FDA3E0FEA3E0FF90E6BCE0F55C90E6BAE0F55D8C828D838EF0EFF7
:20072C0012100E7582012290E6B8E0FFBF400280030209E190E68BE4F090E6A0E0FF20E11B
:20074C00F890E740E0FCA3E0FDA3E0FEA3E0FF90E6BAE0F55C8C828D838EF0EF120EF97505
:20076C0082012290E6B8E0FFBF400280030209E190E6BAE0FCA3E0FDA3E0FEA3E08C828D20
:20078C00838EF01217637582012290E6B8E0FFBFC00280030209E190E6BAE0FF90E6BBE089
:2007AC00FE90E6BCE0FD90E6BDE0FCEF24FB4005EE24F850047582002290E6A0E0FB20E155
:2007CC00F88EF005F07401800225E0D5F0FBF5088D098C0A8F821203A4AF8290E740EFF02C
:2007EC0090E68AE4F00000000090E68B7401F07582012290E6B8E0FFBF400280030209E11C
:20080C0090E6BCE0FF90E6BDE0FEEF7004758201221FBF0400501590E6BAE0FDEEC454F0E3
:20082C0024802DF55C8F82120E80800DEEC454F02480F55C8F82120E807582012290E6B868
:20084C00E0FFBFC002800302093290E6BBE0FE7F0090E6BAE0FD7C00900001ED4FF0EC4E5E
:20086C00A3F090E6BFE0FE7F0090E6BEE0FD7C00900003ED4FF0EC4EA3F0900003E0F5F0D6
:20088C00A3E045F070030209DD90E6A0E0FF20E1F8900003E0FEA3E0FFC3EE9440EF940050
:2008AC0040047E407F007D008D037C00C3EB9EEC9F5010ED2440F582E434E7F5837423F025
:2008CC000D80E590E6BCE024FF9207900001E0FCA3E0FD8E037524407525E78B238C828DAB
:2008EC0083C007C006C005C004C0031217B6D003D004D005D006D00790E68AE4F0000000B4
:20090C000090E68BEBF0900001EE2CF0EF3DA3F0900003E0FCA3E0FD900003ECC39EF0EDE9
:20092C009FA3F002088690E6B8E0FFBF400280030209DD90E6BBE0FE7F0090E6BAE0FD7C59
:20094C0000900005ED4FF0EC4EA3F090E6BFE0FE7F0090E6BEE0FD7C00900007ED4FF0EC2F
:20096C004EA3F0900007E0F5F0A3E045F0606290E68BE4F090E6A0E0FF20E1F890E68BE010
:20098C00FF7E0090E6BCE024FF9208900005E0FCA3E0FD8F267527407528E78C828D83C01B
:2009AC0007C006C005C004121908D004D005D006D007900005EF2CF0EE3DA3F0900007E077
:2009CC00FCA3E0FD900007ECC39FF0ED9EA3F0809275820122758200220000000090E602DF
:2009EC00E4F00000000090E603E4F00000000090E609E4F00000000090E600E0FF74E75F68
:200A0C004410F00000000090E60174E3F00000000090E610E4F00000000090E61174A0F0E3
:200A2C000000000090E61274A2F00000000090E61374E2F00000000090E61474DAF0000085
:200A4C00000090E615E4F00000000090E6187410F00000000090E619740CF000000000909A
:200A6C00E61A740CF00000000090E61BE4F00000000090E6227402F00000000090E623E41A
:200A8C00F00000000090E6247404F00000000090E625E4F00000000090E60B7403F0000001
:200AAC00000090E6047480F00000000090E6047482F00000000090E6047484F0000000000A
:200ACC0090E6047486F00000000090E604E4F02290E6A2E0FF20E13690E7C0740AF090E7EC
:200AEC00C17420F090E7C2E4F090E7C3F090E7C4F090E7C5F090E7C6F090E7C77402F090B6
:0F0B0C00E7C8E4F090E7C9F090E68F740AF02292
:0123AF00002D
:200B1B00AF82BF2002800EBF21028059BF2203020BD7020BDBC2E890E6B57401F090E68B74
:200B3B00E4F090E6B5F0D2E890E68BE0FFBF07F8000000007E007F00EE2417FCEF3400FD11
:200B5B00EE2440F582EF34E7F583E0FB8C828D83F00EBE00010FC3EE9407EF6480948040F7
:200B7B00D77582012290E6B57401F07E007F00EE2440FCEF34E7FDEE2417F582EF3400F5CF
:200B9B0083E0FB8C828D83F00EBE00010FC3EE9407EF6480948040D790E68AE4F0000000D4
:200BBB000090E68B7407F00000000090E6A0E0FF20E1F890E6B5E4F075820122758201228D
:040BDB0075820022FD
:0723B00060090000000008B5
:200BDF00D2B3E5B575B5FF22E5827909C392B3137820D8FE00D9F6D2B37820D8FE22E582CF
:200BFF00FFC4540FFE53060FBE0A0050047D3080027D37ED2EF582C007120BE7D0075307BD
:200C1F000FBF0A0050047E3080027E37EE2FF582020BE7AE82E583FFC4540FFC53040F7D7F
:200C3F0000BC0A0050047D3080027D37ED2CF582C007C006120BE7D006D0078F0553050FCF
:200C5F008D04BC0A0050047C3080027C37EC2DF582C007C006120BE7D006D0078E04EFC4D6
:200C7F00CCC4540F6CCC540FCC6CCC53040F7D00BC0A0050047D3080027D37ED2CF582C093
:200C9F0007C006120BE7D006D007740F5EFFFEBE0A0050047E3080027E37EE2FF582020B37
:200CBF00E7AC82AD83AEF0FFC4540FF853000F79007A007B00B80A0050047B3080027B374F
:200CDF00EB28F582C007C006C005C004120BE7D004D005D006D0078F0353030F8B02BA0AB3
:200CFF000050047A3080027A37EA2BF582C007C006C005C004120BE7D004D005D006D007A8
:200D1F008E00EFC4C8C4540F68C8540FC868C853000F79007A007B00B80A0050047B3080E8
:200D3F00027B37EB28F582C007C006C005C004120BE7D004D005D006D0078E0353030F8B65
:200D5F0002BA0A0050047A3080027A37EA2BF582C007C006C005C004120BE7D004D005D05E
:200D7F0006D0078D00EEC4C8C4540F68C8540FC868C8F9EFC454F049EFC4540F53000F7994
:200D9F00007A007B00B80A0050047B3080027B37EB28F582C007C006C005C004120BE7D0D6
:200DBF0004D005D006D0078D0353030F8B02BA0A0050047A3080027A37EA2BF582C007C004
:200DDF0006C005C004120BE7D004D005D006D0078C00EDC4C8C4540F68C8540FC868C8F95B
:200DFF00EEC454F0498E02EFC4CAC4540F6ACA540FCA6ACA53000F79007A007B00B80A003A
:200E1F0050047B3080027B37EB28F582C007C006C005C004120BE7D004D005D006D0077412
:200E3F000F5CFFFEBE0A0050047E3080027E37EE2FF582020BE7AD82AE83AFF08D828E8383
:200E5F008FF0122295FC60188C820DBD00010EC007C006C005120BE7D005D006D00780DC9C
:010E7F002250
:200E8000AF827DF97E0EEF75F003A4241EF582740035F0F583E0FBA3E0FCA3E0FF8B828CE5
:200EA000838FF0122295F9A3122295FA74022BFBE43CFC900009E9F0EAA3F0900009E0F9EF
:200EC000A3E0FA900009E0F5F0A3E045F06029E92DF582EA3EF583E55CF08B828C838FF0FD
:190EE000122295F9A3122295FAA3AB82AC83900009E9F0EAA3F080C3227E
:2022B600BA000000C700D000D900E200EB00F400FD0006017402A40500002F0036003D0058
:2022D60044004B0052005900600075007C0083008A00910098009F00A600CA00D300DC0069
:2022F600E500EE00F700000109016A0220048B05E2060000160060021604A205F8060000B4
:202316001000250029003100340038003B003F004200460049004D005000540057005B00BE
:202336005E0062006500700077007A007E008100850088008C008F00930096009A009D007A
:20235600A100A400A800AC00B700BC00C000CC00CE00D500D700DE00E000E700E900F000D7
:20237600F200F900FB00020104010B010E018302850229042B04B305B505FA06FC067208E8
:042396007F080000BC
:0F23B700BA2280D022800A2380162380B622808B
:200EF900AC82AD83AEF0FFAB5C8B021BEA6019C2B3EC13920092B2EFC313FFEE13FEED13BF
:200F1900FDEC13FCD2B380E1C2B322E5821392B1D2B313C2B392B1D2B313C2B392B1D2B361
:200F390013C2B392B1D2B313C2B392B1D2B313C2B392B1D2B313C2B392B1D2B313C2B3923E
:200F5900B1D2B300C2B322759AE7759B80A882C2B3E59C1392B1D2B313C2B392B1D2B313C7
:200F7900C2B392B1D2B313C2B392B1D2B313C2B392B1D2B313C2B392B1D2B313C2B392B160
:200F9900D2B313C2B392B1D2B3D8C4C2B322759AE7759B80A882C2B3859C80D2B3D8F7C254
:200FB900B322AF82E582A2B01392B1D2B3C2B3A2B01392B1D2B3C2B3A2B01392B1D2B3C278
:200FD900B3A2B01392B1D2B3C2B3A2B01392B1D2B3C2B3A2B01392B1D2B3C2B3A2B0139268
:200FF900B1D2B3C2B3A2B01392B1D2B300C2B3F582228F8222AF82AE83ADF0FC90002DEF18
:20101900F0EEA3F0EDA3F0ECA3F0900031E55CF0900032E55DF02290002DE0F5F0A3E042F8
:20103900F0A3E042F0A3E045F0700302121CE5BA20E1FBE5BA20E2FB90002DE0FCA3E0FD47
:20105900A3E0FEA3E0FFC3ED9402EE9400EF9400400A780079027A007B0080088C008D0155
:201079008E028F0390E68DE0FF750B80750CE7750DC0750EE790002DE0FBA3E0FCA3E0FDA8
:20109900A3E0FE880F8910E4F511F512EBB50F0EECB5100AEDB51106EEB512028003021117
:2010B90099E824FFFDE934FFFE5305F888048D03ECC39BFCEEC423CDC423541F6DCD541F01
:2010D900CD6DCDFE8D061DEE603FAB0DAE0E850B82850C83E0FA050BE4B50B02050C8A826E
:2010F900C007C006C005C004C003120FBBAA82D003D004D005D006D0078B828E83EAF005D0
:201119000DE4B50DBF050E80BB850B82850C83E0FE050BE4B50B02050C90000CEEF0900021
:201139000BE4F090000D04F08C0690000DE06040EE603D1E900032E0FD30E005EE7002D2E8
:20115900B290000CE0FD13920192B1EDC313FD90000CF030B00C90000DE0FD90000BE0FC39
:201179004DF0D2B3C2B390000DE025E0FDF080BAAD0DAE0E90000BE0FC8D828E83F08051A8
:20119900E9C423C8C423541F68C8541FC868C8F9880618EE603BAD0DAE0E850B82850C83E5
:2011B900E0FC050BE4B50B02050C8C82C007C006C005C000120FBBAC82D000D005D006D0FE
:2011D900078D828E83ECF0050DE4B50DC3050E80BF90E68DE4F090E68FEFF090002DE0FCD2
:2011F900A3E0FDA3E0FEA3E0FF90002DECC3950FF0ED9510A3F0EE9511A3F0EF9512A3F0DE
:20121900021030900031E4F02290002DE0F5F0A3E042F0A3E042F0A3E045F070030213622E
:20123900E5BA20E1FB90002DE0FCA3E0FDA3E0FEA3E0FFC3ED9402EE9400EF9400400A78D1
:201259000079027A007B0080088C008D018E028F0390E68DE090002DE0FCA3E0FDA3E0FEC4
:20127900A3E0FF88138914E4F515F516ECB5130EEDB5140AEEB51506EFB51602800302130E
:201299002F750B80750CE7E824FFFEE934FFFF5306F88E05E8C39DFDEFC423CEC423541F53
:2012B9006ECE541FCE6ECEFF8E071EEF601F850B82850C83E0FF050BE4B50B02050C8F825F
:2012D900C006C005120F24D005D00680DB850B82850C83E090000EF090000F7401F08D07F3
:2012F90090000FE06036EF60331F900032E0FE30E005EF7002D2B290000EE0FE13920292D0
:20131900B1EEC31390000EF0D2B3C2B390000FE025E0FEF080CA758240120F6090E68DE45C
:20133900F090002DE0FCA3E0FDA3E0FEA3E0FF90002DECC39513F0ED9514A3F0EE9515A320
:20135900F0EF9516A3F0021222900031E4F022900032E0FF30E1047FFF80027F00EF1392A1
:201379000390002DE0F5F0A3E042F0A3E042F0A3E045F0700302152DE5BA20E2FB90002D9D
:20139900E0FBA3E0FCA3E0FDA3E0FEC3EC9402ED9400EE9400400CE4F517751802F519F5C3
:2013B9001A80088B178C188D198E1AAD17AE188D03EEC423CBC423541F6BCB541FCB6BCB20
:2013D900FCED540760027401FCC007EC2BFC750DC0750EE790002DE0F8A3E0F9A3E0FAA326
:2013F900E0FF8D178E18E4F519F51AE8B5170EE9B5180AEAB51906EFB51A028005D007024C
:2014190014C9D007ED24FFF9EE34FFFA5301F88906EDC39EFEEAC423C9C423541F69C9543A
:201439001FC969C9FA890519ED6033AA0DAD0E8F82C007C006C005C004C002C001120FBB60
:20145900A882D001D002D004D005D006D0078A828D83E8F0050DE4B50DCB050E80C79000EF
:2014790010E4F090001104F0A20392B1900011E0602EEE602B1E900032E0FD30E005EE703A
:2014990002D2B230B00C900011E0FD900010E0FA4DF0D2B3C2B3900011E025E0FDF080CCD3
:2014B900AD0DAE0E900010E0FA8D828E83F080378B068E051EED602FAB0DAD0E8F82C00753
:2014D900C006C005C004C003120FBBAA82D003D004D005D006D0078B828D83EAF0050DE4C3
:2014F900B50DCF050E80CB90E68FECF090002DE0FBA3E0FCA3E0FDA3E0FE90002DEBC395EB
:2015190017F0EC9518A3F0ED9519A3F0EE951AA3F002137A900031E4F022900032E0FF300A
:20153900E1047FFF80027F00C00790002DE0FBA3E0FCA3E0FDA3E0FEEB24FFF8EC34FFF931
:20155900ED34FFFAEE34FFFF5300F88806900012EBC39EF0881BE9C423C51BC423541F656F
:201579001BC51B541FC51B651BC51BF51CEAC42354E0451CF51C8A1DEFC423C51DC4235482
:201599001F651DC51D541FC51D651DC51DF51ED007AB1BAC1CAD1DAE1E151B74FFB51B0C69
:2015B900151CB51C07151DB51D02151EEB4C4D4E600B8F82C007120F24D00780D4EF1392B7
:2015D9000492B1900012E0FFEF60141F900032E0FE30E005EF7002D2B2D2B3C2B380E9901B
:2015F9000031E4F02290002DE0F5F0A3E042F0A3E042F0A3E045F06051E5BA20E1FB90E645
:201619008DE0FF30050B8F82C007120FA7D00780098F82C007120F60D00790E68DE4F0906E
:20163900002DE0FBA3E0FCA3E0FDA3E0FE8F0079007A007F0090002DEBC398F0EC99A3F0FD
:20165900ED9AA3F0EE9FA3F0809B900031E4F02290002DE0F5F0A3E042F0A3E042F0A3E0F6
:2016790045F0700302171BE5BA20E2FB90002DE0FCA3E0FDA3E0FEA3E0FFC3EC9440ED94B9
:2016990000EE9400EF9400400A784079007A007B0080088C008D018E028F03750DC0750E33
:2016B900E78807EF602DAD0DAE0E758200C007C006C005C000120FBBAC82D000D005D0061B
:2016D900D0078D828E83ECF0050DE4B50D02050E1F80D090E68FE8F090002DE0FCA3E0FDEC
:2016F900A3E0FEA3E0FF79007A007B0090002DECC398F0ED99A3F0EE9AA3F0EF9BA3F00219
:201719001669900031E4F022900031E0FF24F8500122EF240A83F582EF240C83F583E473C3
:2017390062494C4F52555A5F1717171717171717021030021222021368021533D205021505
:20175900FEC2050215FE12166922AA82AB83ACF0FDD2B30000000000000000000000C2B3F6
:171779000000000000001ABAFFE71BBBFFE31CBCFFDF1DBDFFDB225B
:0623C60000000000000011
:2017900090E678E0FF30E0F8EF30E202D322C32290E678E0FF30E0F8EF30E202D322EF20AB
:2017B000E102D322C322AE82AF833007047DAA80027DA290239A75F080C007C006C0051261
:2017D0000E55D005D006D0073007047C3180027C308C82C007C006C005120BE775822C1265
:2017F0000BE7D005D006D0078E828F83C007C006C005120C3275822C120BE7AB237C008BA5
:20181000828C83120C32758229120BE775820D120BE7D005D006D00790E678E0FC20E6F861
:2018300090E6787480F090E679EDF0C007C006C0051217A0D005D006D0075002D3228F0483
:2018500090E679ECF0C007C006C0051217A0D005D006D0075002D32290E679EEF0C0051225
:2018700017A0D0055002D32290E6787480F090E679234DF01217905002D32290E679E01283
:2018900017905002D3227F00AD237E001DBDFF011E8F037C00C3EB9DEC64808EF063F0800B
:2018B00095F0501FEF2524FDE43525FE90E679E08D828E83F0C007121790D0075002D32236
:2018D0000F80C590E6787420F0C007121790D0075002D322EF2524FFE43525FE90E679E052
:2018F0008F828E83F01217905002D32290E6787440F090E679E0C322AE82AF833008047D65
:20191000AA80027DA29023A475F080C007C006C005120E55D005D006D0073008047C31807E
:20193000027C308C82C007C006C005120BE775822C120BE7D005D006D0078E828F83C007F3
:20195000C006C005120C3275822C120BE7AB267C008B828C83120C32758229120BE77582A1
:201970000D120BE7D005D006D00790E678E0FC20E6F890E6787480F090E679EDF0C007C0D7
:2019900006C0051217A0D005D006D0075002D3228F0490E679ECF0C007C006C0051217A061
:2019B000D005D006D0075002D32290E679EEF0C0051217A0D0055002D322AE27AF287C00AF
:2019D000C3EC9526502A8E828F83E0FBA3AE82AF8390E679EBF0C007C006C005C004121708
:2019F00090D004D005D006D0075002D3220C80D090E678E0FF74404FF090E678E0FF20E6BB
:201A1000F890E6787480F090E679EDF0C005121790D0055002D32290E678E0FF74404FF0C6
:121A300090E678E0FF20E6F890E678E0FF30E1D1C32245
:15239A0070726F6D52656164280070726F6D57726974652800DB
:201A4200020BDFAF82BF0A028003BF0D0C75820A120BE775820D020BE78F82020BE7758248
:021A6200302230
:20021200752901752A00752B01752C01752D2A752E2C752F0A753000753100753200753368
:2002320000753400753500753600753700753800753905753A00753B00753C20753D1C752F
:200252003E00753F0075400475410075420075432A75442C75450A75460075475475485809
:20027200754914754A00754B00754C00754D18754E00754F0075502075511C7552007554A2
:01029200006B
:201A6400AF82BF01028015BF8103021B5ABF8203021B5ABF8303021B5A021B9890E6B8E0E6
:201A8400FFBF210280047582002290E68AE4F090E68B741AF00000000090E6A0E0FF20E17B
:201AA400F890E68BE0FFBF1AF890E742E0FF8F2B90E743E0FF8F2C90E742E0FF1FEF2F25D9
:201AC400E02443F987078F2D90E742E0FF1FEF2F25E0244304F987078F2E90E742E0FF1F38
:201AE400EF2F25E024432402F987078F2F90E742E0FF1FEF2F25E024432403F987078F303F
:201B040090E743E0FF1FEF2F25E0244BF987078F3B90E743E0FF1FEF2F25E0244B04F98758
:201B2400078F3C90E743E0FF1FEF2F25E0244B2402F987078F3D90E743E0FF1FEF2F25E031
:201B4400244B2403F987078F3E90E68AE4F090E68BF07582012290E6B57401F07E007F002B
:201B6400EE2440F582EF34E7F583EE2429F9E7FDF00EBE00010FC3EE941AEF6480948040AC
:201B8400DF90E68AE4F00000000090E68B741AF075820122758200228553822290E6BAE050
:201BA400F55375820122AD5CAE5DAF5E8D828E838FF0E55412220A7582012290E6BAE0F569
:201BC400547401B554028003021C910000000090E618E4F00000000090E6047480F000003B
:201BE400000090E6047402F00000000090F0007455F090F0017446F090F0027455F090F0E2
:201C04000304F090F00414F07401B52B0890F005744AF0800690F0057452F090F0067455A1
:201C2400F07401B52C0890F0077444F0800690F0077448F090F0087455F090F009744EF0EE
:201C44000000000090E690E4F00000000090E691740AF00000000090E6497482F00000008C
:201C64000090E604E4F00000000090E6187410F00000000090E6047480F00000000090E63C
:111C8400047406F00000000090E604E4F07582012279
:040000000201B9320E
:01000B0032C2
:0100130032BA
:01001B0032B2
:0100230032AA
:01002B0032A2
:03003300021D02A9
:01003B003292
:01004300328A
:01004B003282
:01005300327A
:01005B003272
:01006300326A
:03006B00021D056E
:030073000222095D
:03007B00021DF46F
:03008300021DCA91
:03008B00021D2C27
:03009300021D7BD0
:03009B00021DF152
:0300A30002223303
:0300AB00022234FA
:0300B300022235F1
:0300BB00022238E6
:0300C3000222080E
:0300CB00022225E9
:0300D300022226E0
:0300DB00022228D6
:0300E300021DF605
:0300EB000222B13D
:0300F300021DF2F9
:0300FB00021DF3F0
:03010300021DF5E5
:03010B00021DF7DB
:03011300021DF8D2
:03011B0002229429
:0301230002223184
:03012B0002223677
:030133000222396C
:03013B0002223B62
:0301430002223263
:03014B0002223756
:0301530002223A4B
:03015B0002223C41
:03016300022293E2
:03016B0002222944
:0301730002222B3A
:03017B0002222D30
:0301830002222F26
:03018B0002222A23
:0301930002222C19
:03019B0002222E0F
:0301A30002223005
:0301AB0002222706
:0301B3000222071E
:04029300C209C20AD0
:0302A9000201B699
:0301B600021C9593
:201C950090E600E0FF74E75F4410F090E100121A421202C4E500D2E890E668E0FF74084FFE
:201CB500F090E65CE0FF74014FF0E0FF74104FF0E0FF74204FF0E0FF74084FF0D2DDD2AF9C
:201CD50090E680E0FF20E11890E680E0FF740A4FF09005DC12223D90E680E0FF74F75FF0FE
:201CF5001203A110090280F8121DF980F3C2DC32C0E0C082C083C007C0D075D000D209AFD0
:201D15009174EF5FF59190E65D7401F0D0D0D007D083D082D0E032C022C0E0C0F0C082C06B
:201D350083C007C006C005C004C003C002C001C000C0D075D0007582001220E9AF9174EF65
:201D55005FF59190E65D7410F0D0D0D000D001D002D003D004D005D006D007D083D082D091
:201D7500F0D0E0D02232C022C0E0C0F0C082C083C007C006C005C004C003C002C001C000B7
:201D9500C0D075D0007582011220E9AF9174EF5FF59190E65D7420F0D0D0D000D001D00254
:201DB500D003D004D005D006D007D083D082D0F0D0E0D02232C0E0C082C083C007C0D075BB
:1C1DD500D000D20AAF9174EF5FF59190E65D7408F0D0D0D007D083D082D0E03281
:202E000012010002EF020140501DB76002000102000109027E0104010080FA080B00020EB5
:202E200003000109040000000E0100000D240100015000006CDC0201011224020101020067
:202E400000000000000000030000000C24050201000003000000001C240603FFFFFFFFFFF0
:202E6000FFFFFFFFFFFFFFFFFFFFFF00010203000000000924030401010003000904010010
:202E8000000E0200000F240102B9008600040101000100000B240601020101000000001E4E
:202EA00024070102000400030000000E0000000E000018002A2C0A00012A2C0A001E24079F
:202EC00002020005D0020000000E0000000E00201C002A2C0A00012A2C0A0006240D0101C5
:202EE000041B240402025955593200001000800000AA00389B711001000000001E24050177
:202F000002000400030000000E0000000E000018005458140001545814001E2405020200A8
:202F200005D0020000000E0000000E00201C0054581400015458140006240D010104090497
:202F40000101010E02000007058601000401080B0202020001010904020001020201010590
:202F60002400100105240602030524010003042402020705810310000809040300020A00CB
:1B2F800000010705840200020007050202000200F9060002EF0201400100005B
:202F9C00040309040A034A0041004E0049001203480044004D00490032005500530042007F
:022FBC00000013
:011DF10032BF
:011DF20032BE
:011DF30032BD
:011DF40032BC
:011DF50032BB
:011DF60032BA
:011DF70032B9
:011DF80032B8
:0601E800E478FFF6D8FDEB
:1202970075560075570075589A75592F755A12755B2E7B
:201DF90090E6B9E0FF24F45003021EF5EF240A83F582EF241083F583E4732B41F557F5F50E
:201E19006DF5738AA2D61E1E1E1E1E1E1E1E1E1E1E1E121F6FE5826003021F0B90E6A0E0DE
:201E3900FF74014FF0021F0B121FFCE5826003021F0B90E6A0E0FF74014FF0021F0B122080
:201E590068E5826003021F0B90E6A0E0FF74014FF0021F0B122114021F0B121B9CAF829039
:201E7900E740EFF090E68AE4F090E68B04F0021F0B90E6BAE0F582121BA0E582707490E639
:201E9900A0E0FF74014FF0806990E6BCE0FF755C55755D00755E408F82121BAAE582700B27
:201EB90090E6A0E0FF74014FF0804790E740E555F090E68AE4F090E68B04F0803590E6BC08
:201ED900E0FF90E6BAE0F55C8F82121BBFE582702190E6A0E0FF74014FF0801690E6B9E066
:201EF900F5821205F3E582700990E6A0E0FF74014FF090E6A0E0FF74804FF022AF828F06AF
:201F190053067FEE24F75003021F6BEE240A83F582EE240D83F583E47344485B6B5F6B63E2
:201F39006B671F1F1F1F1F1F1F1F1F90E6A022EF30E7067EA27FE680047EA17FE68E828F2F
:201F5900832290E6A32290E6A42290E6A52290E6A6229000002290E6B8E0FFBF8002801F32
:201F7900BF81028005BF8273803490E740E4F090E741F090E68AF090E68B7402F08060E5CA
:201F99005725E0FFE556420790E740EFF090E741E4F090E68AF090E68B7402F0804190E699
:201FB900BCE0F582121F15AE82AF838E048F05EE4F7003F582228C828D83E0FC30E0047F51
:201FD9000180027F0090E740EFF090E741E4F090E68AF090E68B7402F0800475820022755B
:201FF90082012290E6B8E0FF6005BF0255801190E6BAE0FFBF0105755700804F7582002282
:2020190090E6BAE0703890E6BCE0F582121F15AE82AF83E0FD5305FE8E828F83EDF090E616
:20203900BCE0FF53070F90E6BCE05480C423541FFE90E6832FF0E0FF74204FF0800D7582F7
:20205900002290E6B9E0F5820205F37582012290E6B8E0FF6005BF026A801B90E6BAE0FF64
:20207900BF0202806790E6BAE0FFBF0105755701805A7582002290E6BAE0704390E6BCE034
:20209900F582121F15AE82AF83EE4F7003F582228E828F83E0FD4305018E828F83EDF090E8
:2020B900E6BCE0FF53070F90E6BCE05480C423541FFE90E6832FF0E0FF74204FF0800D7513
:2020D90082002290E6B9E0F5820205F375820122AF82D20B10AF02C20BEF600E755812755C
:2020F900592E755A9A755B2F800C75589A75592F755A12755B2EA20B92AF2290E6B5740159
:20211900F090E6BBE0FFBF0102801DBF0202802DBF03028037BF06030221D9BF07030221AC
:20213900EEBF0A01220221FD7E007F2E8F0690E6B3EEF07E007F2E90E6B4EEF022AF5990D8
:20215900E6B3EFF0AE5890E6B4EEF0227D9C7E2F7F8090E6BAE0F55C7B008B020BEAB55C8A
:202179000280428D008E018F028D828E838FF012229528F8E439F9880589068A0774012DE8
:20219900F9E43EFA8F0489828A838CF0122295F9B9030280067D007E007F00ED4E6006C306
:2021B900E55C9B50B5ED4E600D8E0790E6B3EFF090E6B4EDF02290E6A0E0FF74014FF022EC
:2021D9007E907F2F8F0690E6B3EEF07E907F2F90E6B4EEF022AF5B90E6B3EFF0AE5A90E618
:0E21F900B4EEF02290E6A0E0FF74014FF02259
:2001C600791DE94400601B7A019023AF7816759200E493F2A308B800020592D9F4DAF275F6
:0201E60092FF86
:0122070032A4
:0122080032A3
:0122090032A2
:1B220A0020F71130F6138883A88220F509F6A8837583002280FEF280F5F022D3
:012225003286
:012226003285
:012227003284
:012228003283
:03004300023F0079
:203F0000021D050002220900021DF400021DCA00021D2C00021D7B00021DF1000222320009
:203F2000022233000222340002223500022238000222080002222500022226000222280012
:203F4000021DF600022232000222B100021DF200021DF300021DF500021DF700021DF800BD
:203F60000222940002223200022232000222320002223100022236000222390002223B001C
:203F80000222370002223A0002223C00022293000222290002222B0002222D0002222F0011
:183FA00002222A0002222C0002222E000222300002222700022207004F
:012229003282
:01222A003281
:2001EE007800E84400600A7901759200E4F309D8FC7815E84400600C7901900001E4F0A307
:04020E00D8FCD9FA45
:01222B003280
:01222C00327F
:01222D00327E
:01222E00327D
:01222F00327C
:01223000327B
:01223100327A
:012232003279
:012233003278
:012234003277
:012235003276
:012236003275
:012237003274
:012238003273
:012239003272
:01223A003271
:01223B003270
:01223C00326F
:20223D00AE82AF8390E600E05418C423541FFD70057CB1FD801C90E600E05418C423541FAF
:20225D00FBBB01067A617B0180047AC27B028A048B058C5C8D5D155C74FFB55C02155DE5D2
:16227D005C455D70F1EE24FFFAEF34FFFB8A068B07EA4B70DD22FE
:012293003218
:012294003217
:0D01B90075815E1222B2E58260030201B67C
:1C22950020F71430F6148883A88220F507E6A88375830022E280F7E49322E02258
:0122B10032FA
:0422B200758200220F
:00000001FF
